:0400000007EF00F016
:0A0008004C823DED0AF02CEF0CF0E5
:101000000001000A006400E80310270A0D496E6918
:101010007469616C697A696E672E2E2E0A0D00451F
:101020006D626564646564202073797374656D0016
:10103000253032643A253032643A2530326400007B
:10104000200E0001606F000E0001616F6AD1250E55
:1010500000016819D8B409D01CC0D9FF1DC0DAFF3F
:1010600068C0DFFF1C4A1D2A5CD1000E0001676FBB
:10107000000E666F000E0001656F04D000016585EB
:101080001E4A1F2A1EC0F6FF1FC0F7FF000EF86E93
:101090000800F550300AD8B4F1D71EC0F6FF1FC0C3
:1010A000F7FF000EF86E0800F550F1EC0BF0D8A039
:1010B00039D0000E0001676F000E666F66C010F039
:1010C00067C011F0000E136E0A0E126ECEEC0BF01C
:1010D00010C066F011C067F0D00E266EFF0E276EAE
:1010E0001EC0F6FF1FC0F7FF000EF86E0800F55097
:1010F000286E296A265028262750292228500001C8
:1011000066272950000167231E4A1F2A1EC0F6FFCA
:101110001FC0F7FF000EF86E0800F550F1EC0BF061
:10112000D8B0CCD71EC0F6FF1FC0F7FF1E4A1F2A3B
:10113000000EF86E0800F5CF68F000016851000A53
:10114000D8B4FED0640AD8B403D00D0AD8A4E9D02C
:1011500060C0D9FF61C0DAFFDECF63F0DDCF64F09D
:10116000020E00016027000E6123000164AF08D069
:10117000030E000165130001636D641FD8B0642B7A
:10118000010E0001686F050E00016819D8B419D06E
:1011900000016851020D010EF324F66E100EF420CA
:1011A000F76EF86A000EF8220900F5500001635D41
:1011B0000900F55000016459D8A003D00001682B44
:1011C000E2D70001665100016711D8B40AD065C0AA
:1011D00026F0030E2616D8B404D000016607D8A066
:1011E0006707800E000168BF7F0E266E0001665102
:1011F0000001685D00016751800A2658D8B00BD005
:10120000000168510001665F000E000168BFFF0E1B
:101210000001675B05D0000E0001676F000E666F6E
:10122000000165A521D065C026F0030E2616D8B4AE
:1012300008D01CC0D9FF1DC0DAFF2D0EDF6E1C4A7E
:101240001D2A0001665100016711D8B433D01CC0BB
:10125000D9FF1DC0DAFF300EDF6E1C4A1D2A0001C7
:101260006607D8A06707EDD7000166510001671136
:10127000D8B412D01CC0D9FF1DC0DAFF200EDF6E1B
:101280001C4A1D2A00016607D8A0670700016651A5
:1012900000016711D8A4EED765C026F0030E26160C
:1012A000D8B408D01CC0D9FF1DC0DAFF2D0EDF6EE8
:1012B0001C4A1D2A68C062F02ED000016251020D46
:1012C000010EF324F66E100EF420F76EF86A000E8D
:1012D000F8220900F5CF12F00A00F5CF13F063C031
:1012E00010F064C011F0B8EC0AF010C017F011C093
:1012F00018F0000E1A6E0A0E196E2BEC0BF0175038
:10130000300F0001686F1CC0D9FF1DC0DAFF68C034
:10131000DFFF1C4A1D2A0001620700016229D8A4D0
:10132000CCD71EC0F6FF1FC0F7FF1E4A1F2A000EB3
:10133000F86E0800F5CF68F000016851D8A487D690
:101340001CC0D9FF1DC0DAFF000EDF6E1200010EB7
:101350002C6E2C50D8B407D00C0E2F6E3B0E306E76
:101360003B0E316E06D0000E316E31C030F030C011
:101370002FF0E1EC0BF0959088909A9088929A92D9
:1013800088949A94000E4FEC0CF01F0E156E100E00
:10139000166E8DEC0AF03350D8B4FDD7000E336EC4
:1013A00008EC0BF0000E81B0010E2B6E000E80BA1F
:1013B000010E2A6E322A2C50D8A420D00A0E3218E0
:1013C000D8A403D0000E326E312A3C0E3118D8A4B6
:1013D00003D0302A000E316E3C0E3018D8A403D052
:1013E0002F2A000E306E2B50D8A426D00C0E2F6E54
:1013F0003B0E316E31C030F0010E1DD00A0E321896
:10140000D8A403D0000E326E31063150D8A403D0D8
:101410003B0E316E30063050D8A403D03B0E306EF8
:101420002F062B50D8A408D0000E316E31C030F0FA
:1014300030C02FF0000E2C6E440E4FEC0CF0380E26
:101440001C6E000E1D6E300E1E6E100E1F6E2FC015
:1014500020F0216A30C022F0236A31C024F0256ACE
:1014600020EC08F0380E156E000E166E8DEC0AF0AA
:10147000000E366E000E356E8ED70600FACF02F0E3
:10148000FBCF03F0E9CF04F0EACF05F0E1CF06F09F
:10149000E2CF07F0D9CF08F0DACF09F0F3CF0AF0A6
:1014A000F4CF0BF0F6CF0CF0F7CF0DF0F8CF0EF035
:1014B000F5CF0FF0F2BAF2A412D0F294D59E0B0E33
:1014C000D76EDB0ED66ED58E010E336E34C001F0B2
:1014D000010E011688500118FE0B0118886E0FC00E
:1014E000F5FF0EC0F8FF0DC0F7FF0CC0F6FF0BC0F4
:1014F000F4FF0AC0F3FF09C0DAFF08C0D9FF07C034
:10150000E2FF06C0E1FF05C0EAFF04C0E9FF03C037
:10151000FBFF02C0FAFF4C92110015D015C0F6FF78
:1015200016C0F7FF000EF86E0F0EF76403D0080028
:10153000F55005D0F6CFE9FFF7CFEAFFEF50A2EC68
:101540000BF0154A162A15C0F6FF16C0F7FF000E5D
:10155000F86E0F0EF76403D00800F55005D0F6CFF3
:10156000E9FFF7CFEAFFEF500009D8B41200D6D751
:10157000000E166E000E156E12501310D8B41CD04B
:10158000010E146E04D0D89012361336142A13AEFE
:10159000FAD7D890153616361250105C13501158E1
:1015A000D8A005D01250105E1350115A1580D89053
:1015B00013321232142EEDD715C010F016C011F0F0
:1015C0001200106E080E116E10C037F0829A37BEEE
:1015D000828A00F000F082A803D0D880373603D08A
:1015E00037503724376E828600F000F000F000F0AC
:1015F00000F000F000F000F000F000F000F0829643
:10160000829A37BE828A11061150D8B41200E3D7ED
:10161000000E106E000E116E000E81B0010E106EE5
:101620001050D8A406D02E501018D8B402D0010EF5
:10163000366E10C02EF0000E80BA010E116E1150E1
:10164000D8A406D02D501118D8B402D0010E356E92
:1016500011C02DF0120019501A10D8B418D0010E74
:101660001B6E04D0D89019361A361B2A1AAEFAD738
:101670001950175C1A501858D8A004D01950175E8A
:101680001A50185AD8901A3219321B2EF1D717C097
:1016900017F018C018F0120037EC0CF0000E126EA4
:1016A000010E00EC0CF0000E126E000E00EC0CF0BF
:1016B000000E126E000E0FEC0CF03F0EB8EC0BF0AB
:1016C0000C0EB8EC0BF0010EB8EC0BF0060EB8ECFB
:1016D0000BF055EC0CF01200889C889E9A9E9A9C08
:1016E000000ED76E000ED66E000ED56ED59ED59C20
:1016F000D59AD598D596D550F80B0109D56E0B0E15
:10170000D76EDB0ED66EF28AF28ED58E120011C025
:10171000F6FF12C0F7FF000EF86E0800F55048EC17
:101720000CF0114A122AFA0E40EC0CF011C0F6FF30
:1017300012C0F7FF000EF86E0800F5500009D8B48B
:101740001200E5D7146E800E126E120E0FEC0CF024
:1017500014C012F0130E0FEC0CF0C00E126E120E2D
:101760000FEC0CF0000E126E120E0FEC0CF01200CB
:10177000146E000E126E120E0FEC0CF014C012F06C
:10178000130E0FEC0CF0400E126E120E0FEC0CF05C
:10179000000E126E120E0FEC0CF01200105012021E
:1017A000F3CF14F0F4CF15F010501302F3501526B8
:1017B00011501202F350152614C010F015C011F08C
:1017C00012009C8E1EEC0CF00B0E116E100E126EA1
:1017D00087EC0BF059EC0CF06CEC0BF04CEC0BF0D4
:1017E0001200126E000E116E3A0E126005D02F0E0E
:1017F000126402D0010E116E11C010F010301200F0
:10180000136E5EEC0CF0400EE1EC0AF01350E1ECCC
:101810000AF01250E1EC0AF05CEC0CF01200136ECE
:101820005EEC0CF0400EE1EC0AF01350E1EC0AF033
:101830001250E1EC0AF05CEC0CF01200010E116E9B
:10184000950E106E949C948EAC9810C0AFFFAC8A2D
:10185000AB889D8AAB8E120000EE2DF01F0EEE6A53
:10186000E806FDE14C904C920001A7EF09F080845E
:101870008288829A829692949488949A949612007E
:10188000106E030EE82EFED700F0102EFAD71200CD
:10189000106E10C0ADFF9EA8FED79E981200156E68
:1018A0001550800FB8EC0BF01200010EB8EC0BF0E5
:1018B00012009380928A1200808412008094120099
:020000040020DA
:08000000FFFFFFFFFFFFFFFF00
:020000040030CA
:0E000000FF021F1EF38385FFFFC0FFE0FF40DD
:00000001FF
