:04000000C8EFFFF056
:020000040001F9
:10FF8000C3ECFFF01200000E956E000E8C6E120096
:10FF9000036A026A016A0001CEEFFFF0C0ECFFF0D5
:10FFA000000E066E000E056E065011E1320E055C65
:10FFB000D8B00DD0410E046EEE0EE82EFED7042E02
:10FFC000FCD700D0054A062A065001E1EFD78C681D
:10FFD000000E066E000E056E06500FE1320E055C37
:10FFE000D8B00BD0410E046EEE0EE82EFED7042ED4
:10FFF000FCD700D0054A062AEFD7000E8C6ED0D76A
:020000040020DA
:08000000FFFFFFFFFFFFFFFF00
:020000040030CA
:0E000000FF021F1EF38385FFFFC0FFE0FF40DD
:00000001FF
