:0400000062EFFFF0BC
:020000040001F9
:10FEAA0058ECFFF01200000E956E000E8C6E1200D8
:10FEBA0055ECFFF094ECFFF0FDD7106A0F6A0E6A5A
:10FECA0000015DEFFFF0000E036E000E026E03509C
:10FEDA000FE1320E025CD8B01200410E016EEE0E36
:10FEEA00E82EFED7012EFCD700D0024A032AEFD70C
:10FEFA001200000E056E000E046E0AD0410E036E4B
:10FF0A00EE0EE82EFED7032EFCD700D0044A052AAF
:10FF1A000150045C02500558D8B01200EFD7000E09
:10FF2A000D6E070E0C6E000E8C6E000E096E000E22
:10FF3A00086E000E0D6E070E0C6E000E0B6E000E94
:10FF4A000A6E15D00AC006F0010E076E062A02D004
:10FF5A00D8900736062EFCD7075008108C6E000E74
:10FF6A00026E0F0E016E7EECFFF00A4A0B2A010E9A
:10FF7A000C24066E000E0D20076E06500A5C075010
:10FF8A000B58D8A0DFD70CC006F0010E076E062A60
:10FF9A0002D0D8900736062EFCD707508C128CCF89
:10FFAA0008F0096A0C500D10D8B404D00C06D8A079
:10FFBA000D06C3D7000E026E140E016E7EECFFF022
:10FFCA00000E8C6E000E026E140E016E7EECFFF0B7
:10FFDA008C68000E026E140E016E7EECFFF0000EAD
:10FFEA008C6E000E026E140E016E7EECFFF08C68B1
:06FFFA0068ECFFF01200AC
:020000040020DA
:08000000FFFFFFFFFFFFFFFF00
:020000040030CA
:0E000000FF021F1EF38385FFFFC0FFE0FF40DD
:00000001FF
