:0400000007EF00F016
:0A0008005082EBED83F0D3EF86F099
:10FEF4000001000A006400E80310272020436C6915
:10FF04006D61206973204F4646202000002D2D2D61
:10FF14002D2D2D2D2D2D2D2D2D2D2D2D2D00005440
:10FF2400653A2B2020432054693A2B20204320009B
:10FF34000052656365202020202020203C2020439F
:10FF44003E000054653A2B2020432054693A2B206C
:10FF5400204320000043616C6420202020202020C6
:10FF64003C2020433E000054653A2B20204320547B
:10FF7400693A2B20204320000056656E742020200F
:10FF8400202020202020204320000048533A2564CC
:10FF94002C20484C3A25642C2043533A25642C20C9
:10FFA400000A0D496E697469616C697A696E672E1D
:10FFB4002E2E0A0D004C434420696E6974202E2EA7
:10FFC4002E007C2E2E2E2E007C7C2E2E2E007C7C51
:10FFD4007C2E2E007C7C7C7C2E007C7C7C7C7C00BB
:10FFE400253032640043616C6400526563650056D9
:0CFFF400656E74002564003C003E0000B7
:020000040001F9
:10000000600E226E000E236E8F0E246EFF0E256E84
:100010004DC026F0276A4CC028F0296A4EC02AF04D
:100020002B6AA9EC81F087D16CEC87F00009D8B479
:100030001200030E4F6EA9EC85F0000E116E000E3B
:10004000106E66EC87F0000E116E010E106E60EC03
:1000500087F0010E28EC87F012006CEC87F00009A5
:10006000D8B420D0000E4F6EA9EC85F0000E116EB2
:10007000000E106E60EC87F0000E116E010E106E17
:1000800066EC87F0000E116E000E106E63EC87F0C8
:10009000000E116E000E106E69EC87F0000E31EC50
:1000A00087F0120046503D5C000E3E58D8B01AD082
:1000B000020E4F6E000E116E000E106E63EC87F094
:1000C000000E116E010E106E69EC87F0000E31EC1F
:1000D00087F0010E28EC87F0010E1FEC87F002EC90
:1000E00083F0120046500001746F756B3D500001A3
:1000F000741916E13E5000017519D8A411D0030EF1
:100100004F6E000E116E000E106E63EC87F0000E45
:1001100031EC87F0010E28EC87F002EC83F012003E
:1001200046500001746F756B0001741F751F744B8E
:10013000752B3D50000174273E50000175230001CE
:10014000755109E1070E0001745DD8B004D0465026
:1001500000083D2401D0060E3A6E3A5031EC87F08B
:1001600002EC83F012006CEC87F00009D8B420D0C8
:10017000000E4F6EA9EC85F0000E116E000E106E91
:1001800060EC87F0000E116E010E106E66EC87F0C9
:10019000000E116E000E106E69EC87F0000E1FEC61
:1001A00087F0000E28EC87F0000E31EC87F012008B
:1001B00046500001746F756B3D500001745D3E50F8
:1001C00000017559D8B01AD0010E4F6E000E116E95
:1001D000010E106E63EC87F0000E116E000E106EB3
:1001E00069EC87F0000E1FEC87F0000E28EC87F01A
:1001F000010E31EC87F002EC83F012004650000152
:10020000746F756B3D500001741916E13E5000018A
:100210007519D8A411D0030E4F6E000E116E000E8A
:10022000106E69EC87F0000E1FEC87F0010E28ECD1
:1002300087F002EC83F012003DC074F03EC075F010
:100240000001741F751F744B752B46500001766FAB
:10025000776B000174510001762700017551000190
:1002600077230001775109E1070E0001765DD8B0D0
:1002700004D03D500008462401D0060E3A6E3A5094
:100280001FEC87F03A5028EC87F002EC83F0120064
:100290006CEC87F00009D8B417D0000E4F6E000E3A
:1002A000116E000E106E60EC87F0000E116E010EE4
:1002B000106E66EC87F0000E28EC87F0000E31EC33
:1002C00087F0A9EC85F0120046503D5C000E3E58C8
:1002D000D8B011D0020E4F6E000E116E010E106ECE
:1002E00069EC87F0010E1FEC87F0010E28EC87F017
:1002F00002EC83F0120046500001746F756B3D50A4
:100300000001745D3E5000017559D8B011D0010E46
:100310004F6E000E116E010E106E63EC87F0000E32
:1003200028EC87F0010E31EC87F002EC83F012002C
:1003300002EC83F012004F50000AD8B475D6010ABF
:10034000D8B48BD6030AD8B40ED7010AD8A41200A9
:100350009FD7260E306E000E316E3FD1250E381815
:10036000D8B409D022C0D9FF23C0DAFF38C0DFFFDC
:10037000224A232A32D1000E376E000E366E000E4E
:10038000356E03D03584244A252A24C0F6FF25C0C3
:10039000F7FF000EF86E0800F550300AD8B4F2D717
:1003A00024C0F6FF25C0F7FF000EF86E0800F550D8
:1003B00002EC87F0D8A036D0000E376E000E366EF5
:1003C00036C010F037C011F0000E136E0A0E126E18
:1003D000C0EC86F010C036F011C037F0D00E2C6E95
:1003E000FF0E2D6E24C0F6FF25C0F7FF000EF86E3D
:1003F0000800F5502E6E2F6A2C502E262D502F22DD
:100400002E5036262F503722244A252A24C0F6FFA4
:1004100025C0F7FF000EF86E0800F55002EC87F0DB
:10042000D8B0CED724C0F6FF25C0F7FF244A252A2E
:10043000000EF86E0800F5CF38F03850000AD8B436
:10044000DAD0640AD8B403D00D0AD8A4C6D030C01C
:10045000D9FF31C0DAFFDECF33F0DDCF34F0020E4A
:100460003026000E312234AE06D0030E3512336C26
:10047000341ED8B0342A010E386E050E3818D8B4A0
:1004800015D03850020DF50EF324F66EFE0EF42052
:10049000F76EF86A000EF8220900F550335C090087
:1004A000F5503458D8A002D0382AE7D73650371044
:1004B000D8B409D035C02CF0030E2C16D8B403D014
:1004C0003606D8A03706800E38BE7F0E2C6E36500A
:1004D000385C3750800A2C58D8B007D03850365E78
:1004E000000E38BEFF0E375A04D0000E376E000ED5
:1004F000366E35A41ED035C02CF0030E2C16D8B4A1
:1005000008D022C0D9FF23C0DAFF2D0EDF6E224AA9
:10051000232A36503710D8B42DD022C0D9FF23C09B
:10052000DAFF300EDF6E224A232A3606D8A03706BD
:10053000F0D736503710D8B40FD022C0D9FF23C01F
:10054000DAFF200EDF6E224A232A3606D8A03706AD
:1005500036503710D8A4F1D735C02CF0030E2C1626
:10056000D8B408D022C0D9FF23C0DAFF2D0EDF6E29
:10057000224A232A38C032F02CD03250020DF50E18
:10058000F324F66EFE0EF420F76EF86A000EF822E1
:100590000900F5CF18F00A00F5CF19F033C016F0B6
:1005A00034C017F033EC85F016C01DF017C01EF0F4
:1005B000000E206E0A0E1F6ECAEC85F01D50300F23
:1005C000386E22C0D9FF23C0DAFF38C0DFFF224ACD
:1005D000232A32063228D8A4D0D724C0F6FF25C05B
:1005E000F7FF244A252A000EF86E0800F5CF38F0F0
:1005F0003850D8A4B3D622C0D9FF23C0DAFF000EEA
:10060000DF6E1200000E396E4F50D8B41200600E2B
:10061000226E000E236EE40E246EFF0E256E3BC08C
:1006200026F03CC027F0A9EC81F0040E52EC87F0D4
:10063000600E156E000E166E08EC85F0600E226ED0
:10064000000E236EE40E246EFF0E256E3DC026F0D4
:100650003EC027F0A9EC81F00C0E52EC87F0600E42
:10066000156E000E166E08EC85F0400E52EC87F009
:100670004F04D8A407D0EE0E156EFF0E166E08ECD0
:1006800085F015D0020E4F18D8A407D0E90E156ECC
:10069000FF0E166E08EC85F00AD0030E4F18D8A492
:1006A00006D0F30E156EFF0E166E08EC85F0450EA3
:1006B00052EC87F04F04D8A403D04EC039F002D0DA
:1006C0004DC039F0040E3918D8A407D0C60E156EE7
:1006D000FF0E166E08EC85F027D0050E3918D8A449
:1006E00007D0CC0E156EFF0E166E08EC85F01CD0F0
:1006F000060E3918D8A407D0D20E156EFF0E166E4E
:1007000008EC85F011D0070E3918D8A407D0D80E00
:10071000156EFF0E166E08EC85F006D0DE0E156E17
:10072000FF0E166E08EC85F0600E226E000E236E32
:10073000F80E246EFF0E256E46C026F0276AA9EC3F
:1007400081F04C0E52EC87F0600E156E000E166EA6
:1007500008EC85F0150E4618D8A413D04B0E52ECB9
:1007600087F0A30E156EFF0E166E08EC85F04F0E87
:1007700052EC87F0FD0E156EFF0E166E08EC85F03C
:100780001200240E4618D8A413D04B0E52EC87F05A
:10079000FB0E156EFF0E166E08EC85F04F0E52EC38
:1007A00087F0A30E156EFF0E166E08EC85F0120092
:1007B0004B0E52EC87F0FB0E156EFF0E166E08EC1A
:1007C00085F04F0E52EC87F0FD0E156EFF0E166E83
:1007D00008EC85F012000600FACF02F0FBCF03F020
:1007E000E9CF04F0EACF05F0E1CF06F0E2CF07F061
:1007F000D9CF08F0DACF09F0F3CF0AF0F4CF0BF03D
:10080000F6CF0CF0F7CF0DF0F8CF0EF0F5CF0FF0DC
:10081000F2BAF2A440D0F294D59EFB0ED76E1B0E16
:10082000D66ED58E452A4550030B030AD8A409D0AD
:10083000432A190E4318D8A404D0010E446E000EAA
:10084000436E45C001F0010E011688500118FE0BE1
:100850000118886E45C001F0070E01164E50015C6C
:10086000D8B002D0838801D0839845C001F0070E2C
:1008700001164D50015CD8B002D0838A01D0839A12
:1008800045C001F0070E01164C50015CD8B002D0F3
:10089000838601D083960FC0F5FF0EC0F8FF0DC010
:1008A000F7FF0CC0F6FF0BC0F4FF0AC0F3FF09C04E
:1008B000DAFF08C0D9FF07C0E2FF06C0E1FF05C0AC
:1008C000EAFF04C0E9FF03C0FBFF02C0FAFF509239
:1008D0001100000E0001786F000E776F000E00010E
:1008E000796F000E81B0010E0001796F000179511E
:1008F0000001D8A407D0415000017919D8B402D022
:10090000010E476E79C041F0000E48EC86F010C031
:1009100077F011C078F077C074F078C075F0060EEB
:100920000001766F0001D890753374330001762F83
:10093000F9D700017451150F466E4250D8A432D039
:10094000010E48EC86F010C077F011C078F077C047
:1009500010F078C011F0000E136E050E126EC0EC90
:1009600086F0700E1024166EFE0E1120176E000E0B
:10097000196E130E186E33EC85F016C03BF017C0DD
:100980003CF0600E226E000E236EF80E246EFF0EF9
:10099000256E3BC026F03CC027F0A9EC81F01E0E6E
:1009A000426E120042061200000E956E000E836E1B
:1009B0009C8E11EC87F0A50E116EFF0E126E64EC8A
:1009C00086F06EEC87F02AEC86F058EC87F0EBECC2
:1009D00085F083EC85F0000E4F6EA9EC85F0000EDB
:1009E000116E010E106E66EC87F0000E116E000E97
:1009F000106E69EC87F0000E31EC87F0000E28ECE9
:100A000087F0000E116E000E106E69EC87F0120078
:100A100015D015C0F6FF16C0F7FF000EF86E0F0ECA
:100A2000F76403D00800F55005D0F6CFE9FFF7CF03
:100A3000EAFFEF507FEC86F0154A162A15C0F6FF44
:100A400016C0F7FF000EF86E0F0EF76403D0080013
:100A5000F55005D0F6CFE9FFF7CFEAFFEF500009D8
:100A6000D8B41200D6D7000E1C6E000E1B6E1850A4
:100A70001910D8B41CD0010E1A6E04D0D8901836B4
:100A800019361A2A19AEFAD7D8901B361C361850C8
:100A9000165C19501758D8A005D01850165E19507A
:100AA000175A1B80D890193218321A2EEDD71BC056
:100AB00016F01CC017F01200106E080E116E10C058
:100AC0003FF0829A3FBE828A00F000F082A803D0F5
:100AD000D8803F3603D03F503F243F6E828600F0DF
:100AE00000F000F000F000F000F000F000F000F086
:100AF00000F000F08296829A3FBE828A1106115061
:100B0000D8B41200E3D73AEC87F0000E126E010E53
:100B1000E4EC86F0000E126E000EE4EC86F0000E9F
:100B2000126E000EF3EC86F03F0E95EC86F00C0E84
:100B300095EC86F0010E95EC86F0060E95EC86F0AD
:100B4000B90E156EFF0E166E08EC85F05CEC87F0A2
:100B500012005CEC87F0000E52EC87F04F50240D31
:100B6000FF0EF324156EFE0EF420166E08EC85F0D1
:100B7000400E52EC87F04F50240D120EF326000E5B
:100B8000F422FF0EF324156EFE0EF420166E08EC10
:100B900085F012001F502010D8B418D0010E216E1D
:100BA00004D0D8901F362036212A20AEFAD71F5005
:100BB0001D5C20501E58D8A004D01F501D5E205030
:100BC0001E5AD89020321F32212EF1D71DC01DF0A1
:100BD0001EC01EF01200889C889E9A9E9A9C839646
:100BE0008398839A95969598959A000ED76E000EE5
:100BF000D66E000ED56ED59ED59CD59AD598D59635
:100C0000D590D592D594FB0ECF6E1D0ECE6EF28A86
:100C1000F28ED58E1200D4EC84F0000E00017A6FB3
:100C200088909A9088929A9288949A94000E956EE1
:100C30004450D8B4FDD7000E446E00017A2B88844E
:100C400069EC84F000EC80F0ABEC86F0000E476EAF
:100C50008894EED792500109926E92500209926EDA
:100C600092500809926EC250C30B0409C26EC29220
:100C7000C290CF0EC116C190C192C194C196C08ED0
:100C8000C086C088C08AC050F80B0209C06E12002E
:100C9000136E0D0E136405D0000E116E000E106E53
:100CA0001200C28013C012F012461246C25012182F
:100CB000C30B1218C26EC280C282C2B2FED7C3CFAB
:100CC00010F0C4CF11F0120011C0F6FF12C0F7FFF0
:100CD000000EF86E0800F5504BEC87F0114A122A0E
:100CE000FA0E43EC87F011C0F6FF12C0F7FF000EBA
:100CF000F86E0800F5500009D8B41200E5D7146E5C
:100D0000800E126E120EF3EC86F014C012F0130E69
:100D1000F3EC86F0C00E126E120EF3EC86F0000EAD
:100D2000126E120EF3EC86F01200146E000E126EAC
:100D3000120EF3EC86F014C012F0130EF3EC86F0F2
:100D4000400E126E120EF3EC86F0000E126E120EB2
:100D5000F3EC86F0120049B002D0839E01D0838E5E
:100D600048B002D0839C01D0838C4AB002D08392D9
:100D700001D083824BB002D0839001D083801200D7
:100D800010501202F3CF14F0F4CF15F010501302EC
:100D9000F350152611501202F350152614C010F00E
:100DA00015C011F0120000EE60F0140EEE6AE806B5
:100DB000FDE100EE3BF0150EEE6AE806FDE1509015
:100DC000509200010BEF86F0136E72EC87F0400E2C
:100DD0005CEC85F013505CEC85F012505CEC85F017
:100DE00070EC87F01200136E72EC87F0400E5CEC32
:100DF00085F013505CEC85F012505CEC85F070ECE3
:100E000087F01200126E000E116E3A0E126005D0BD
:100E10002F0E126402D0010E116E11C010F01030AE
:100E20001200000E116E070E106E949C948EAC98FA
:100E300010C0AFFFAC8AAB889D8AAB8E1200106EDB
:100E40001050D8B402D0030E102610C04CF012007F
:100E5000106E1050D8B402D0030E102610C04DF002
:100E60001200106E1050D8B402D0030E102610C01D
:100E70004EF0120080848288829A8296929494889E
:100E8000949A94961200106E030EE82EFED700F08E
:100E9000102EFAD71200106E10C0ADFF9EA8FED71C
:100EA0009E981200156E1550800F95EC86F012007A
:100EB00095969598959A1200010E95EC86F0120081
:100EC00010C048F0120010C04AF0120010C049F0E3
:100ED000120010C04BF01200475012009380120015
:080EE0008084120080941200CE
:020000040020DA
:08000000FFFFFFFFFFFFFFFF00
:020000040030CA
:0E000000FF021F1EF38385FFFFC0FFE0FF40DD
:00000001FF
