:0400000007EF00F016
:0A00080050822BED84F08BEF87F09F
:10FEF4000001000A006400E80310272020436C6915
:10FF04006D61206973204F4646202000002D2D2D61
:10FF14002D2D2D2D2D2D2D2D2D2D2D2D2D00005440
:10FF2400653A2B2020432054693A2B20204320009B
:10FF34000052656365202020202020203C2020439F
:10FF44003E000054653A2B2020432054693A2B206C
:10FF5400204320000043616C6420202020202020C6
:10FF64003C2020433E000054653A2B20204320547B
:10FF7400693A2B20204320000056656E742020200F
:10FF8400202020202020204320000048533A2564CC
:10FF94002C20484C3A25642C2043533A25642C20C9
:10FFA400000A0D496E697469616C697A696E672E1D
:10FFB4002E2E0A0D004C434420696E6974202E2EA7
:10FFC4002E007C2E2E2E2E007C7C2E2E2E007C7C51
:10FFD4007C2E2E007C7C7C7C2E007C7C7C7C7C00BB
:10FFE400253032640043616C6400526563650056D9
:0CFFF400656E74002564003C003E0000B7
:020000040001F9
:10000000260E0001746F000E0001756F6AD1250E77
:1000100000017C19D8B409D022C0D9FF23C0DAFF6F
:100020007CC0DFFF224A232A5CD1000E00017B6FD7
:10003000000E7A6F000E0001796F04D000017985FF
:10004000244A252A24C0F6FF25C0F7FF000EF86ECB
:100050000800F550300AD8B4F1D724C0F6FF25C007
:10006000F7FF000EF86E0800F550BAEC87F0D8A044
:1000700039D0000E00017B6F000E7A6F7AC010F04D
:100080007BC011F0000E136E0A0E126E66EC87F044
:1000900010C07AF011C07BF0D00E2C6EFF0E2D6ECA
:1000A00024C0F6FF25C0F7FF000EF86E0800F550DB
:1000B0002E6E2F6A2C502E262D502F222E500001EE
:1000C0007A272F5000017B23244A252A24C0F6FFDB
:1000D00025C0F7FF000EF86E0800F550BAEC87F067
:1000E000D8B0CCD724C0F6FF25C0F7FF244A252A74
:1000F000000EF86E0800F5CF7CF000017C51000A7C
:10010000D8B4FED0640AD8B403D00D0AD8A4E9D07C
:1001100074C0D9FF75C0DAFFDECF77F0DDCF78F09D
:10012000020E00017427000E7523000178AF08D07D
:10013000030E000179130001776D781FD8B0782B7A
:10014000010E00017C6F050E00017C19D8B419D096
:1001500000017C51020DF50EF324F66EFE0EF42024
:10016000F76EF86A000EF8220900F5500001775D7D
:100170000900F55000017859D8A003D000017C2B6C
:10018000E2D700017A5100017B11D8B40AD079C0BE
:100190002CF0030E2C16D8B404D000017A07D8A096
:1001A0007B07800E00017CBF7F0E2C6E00017A5110
:1001B00000017C5D00017B51800A2C58D8B00BD027
:1001C00000017C5100017A5F000E00017CBFFF0E30
:1001D00000017B5B05D0000E00017B6F000E7A6F83
:1001E000000179A521D079C02CF0030E2C16D8B4CB
:1001F00008D022C0D9FF23C0DAFF2D0EDF6E224ABD
:10020000232A00017A5100017B11D8B433D022C0D7
:10021000D9FF23C0DAFF300EDF6E224A232A000105
:100220007A07D8A07B07EDD700017A5100017B1136
:10023000D8B412D022C0D9FF23C0DAFF200EDF6E5F
:10024000224A232A00017A07D8A07B0700017A51AD
:1002500000017B11D8A4EED779C02CF0030E2C1628
:10026000D8B408D022C0D9FF23C0DAFF2D0EDF6E2C
:10027000224A232A7CC076F02ED000017651020D4E
:10028000F50EF324F66EFE0EF420F76EF86A000EFB
:10029000F8220900F5CF18F00A00F5CF19F077C061
:1002A00016F078C017F0D9EC85F016C01DF017C015
:1002B0001EF0000E206E0A0E1F6E70EC86F01D50B0
:1002C000300F00017C6F22C0D9FF23C0DAFF7CC051
:1002D000DFFF224A232A0001760700017629D8A4ED
:1002E000CCD724C0F6FF25C0F7FF244A252A000EEC
:1002F000F86E0800F5CF7CF000017C51D8A487D6B9
:1003000022C0D9FF23C0DAFF000EDF6E1200600E9C
:10031000226E000E236E8F0E246EFF0E256E4DC0D2
:1003200026F0276A4CC028F0296A4EC02AF02B6AB2
:1003300000EC80F0FFD039503A10D8A406D0000E5F
:100340003A6E010E396EA8EC82F0000E116E010EAD
:10035000106E15EC88F0000E116E010E106E0FEC91
:1003600088F0000E116E000E106E18EC88F0000E72
:10037000116E000E106E12EC88F0000EE0EC87F0AB
:10038000000ED7EC87F01BEC88F00009D8B41200FF
:10039000030E4F6E000E3A6E000E396E1200A8EC7E
:1003A00082F0000E116E000E106E18EC88F0000E38
:1003B000116E010E106E12EC88F04650316E326AEA
:1003C000311E321E314A322A3D503124186E3E50C1
:1003D0003220196E79EC87F018C036F019C037F06A
:1003E0001AC038F0365037103810D8A406D0030E93
:1003F0004F6E000E3A6E000E396E36C010F037C0E8
:1004000011F038C012F0A9EC84F01050E0EC87F045
:100410001BEC88F00009D8B41200000E4F6E000EDD
:100420003A6E000E396E1200A8EC82F0000E116ECA
:10043000010E106E18EC88F0000E116E000E106E9A
:1004400012EC88F03DC031F03EC032F0311E321E59
:10045000314A322A46503124186E000E3220196E6D
:1004600079EC87F018C036F019C037F01AC038F0B0
:10047000365037103810D8A406D0030E4F6E000E39
:100480003A6E000E396E36C010F037C011F038C029
:1004900012F0A9EC84F01050D7EC87F01BEC88F038
:1004A0000009D8B41200000E4F6E000E3A6E000E16
:1004B000396E1200A8EC82F0000E116E000E106E64
:1004C0000FEC88F0000E116E010E106E15EC88F026
:1004D000000E116E000E106E18EC88F0000E116EFA
:1004E000000E106E12EC88F0010ED7EC87F046502B
:1004F000316E326A3D50315C3E503258D8B002D035
:10050000010E07D046503D5C000E3E58D8B006D0D4
:10051000020E4F6E000E3A6E000E396E1BEC88F024
:100520000009D8B41200000E4F6E000E3A6E000E95
:10053000396E12004F50000AD8B4FDD6010AD8B463
:100540002ED7030AD8B470D7010AD8A41200B2D7A4
:10055000000E306E4F50D8B4120039503A10D8A463
:1005600006D0000E3A6E010E396E0BEC88F0600E6C
:10057000226E000E236EE40E246EFF0E256E3BC02D
:1005800026F03CC027F000EC80F0040E01EC88F06F
:10059000600E156E000E166EAEEC85F0600E226ECB
:1005A000000E236EE40E246EFF0E256E3DC026F075
:1005B0003EC027F000EC80F00C0E01EC88F0600EDD
:1005C000156E000E166EAEEC85F0400E01EC88F054
:1005D0004F04D8A407D0EE0E156EFF0E166EAEECCB
:1005E00085F015D0020E4F18D8A407D0E90E156E6D
:1005F000FF0E166EAEEC85F00AD0030E4F18D8A48D
:1006000006D0F30E156EFF0E166EAEEC85F0450E9D
:1006100001EC88F04F04D8A403D04EC030F002D0D3
:100620004DC030F0040E3018D8A407D0C60E156E99
:10063000FF0E166EAEEC85F027D0050E3018D8A44C
:1006400007D0CC0E156EFF0E166EAEEC85F01CD0EA
:10065000060E3018D8A407D0D20E156EFF0E166EF7
:10066000AEEC85F011D0070E3018D8A407D0D80E04
:10067000156EFF0E166EAEEC85F006D0DE0E156E12
:10068000FF0E166EAEEC85F0600E226E000E236E2D
:10069000F80E246EFF0E256E46C026F0276A00EC89
:1006A00080F04C0E01EC88F0600E156E000E166E98
:1006B000AEEC85F0150E4618D8A413D04B0E01EC05
:1006C00088F0A30E156EFF0E166EAEEC85F04F0E81
:1006D00001EC88F0FD0E156EFF0E166EAEEC85F087
:1006E0001200240E4618D8A413D04B0E01EC88F04B
:1006F000FB0E156EFF0E166EAEEC85F04F0E01EC84
:1007000088F0A30E156EFF0E166EAEEC85F012008B
:100710004B0E01EC88F0FB0E156EFF0E166EAEEC64
:1007200085F04F0E01EC88F0FD0E156EFF0E166E73
:10073000AEEC85F01200000E356E000E346E000E29
:10074000336E000E81B0010E336E3350D8A406D044
:1007500041503318D8B402D0010E476E33C041F077
:10076000000EEEEC86F010C034F011C035F034C04D
:1007700030F035C031F0060E326ED8903132303262
:10078000322EFBD73050150F466E4250D8A461D0A0
:10079000010EEEEC86F010C034F011C035F034C01C
:1007A00010F035C011F0000E136E050E126E66ECDF
:1007B00087F0700E1024166EFE0E1120176E000EBC
:1007C000196E130E186ED9EC85F016C03BF017C0E9
:1007D0003CF0600E226E000E236EF80E246EFF0EAB
:1007E000256E3BC026F03CC027F000EC80F0030EE5
:1007F000EEEC86F010C034F011C035F034C010F0CB
:1008000035C011F0000E136E050E126E66EC87F007
:10081000700E1024166EFE0E1120176E000E196E4B
:100820000A0E186ED9EC85F016C03DF017C03EF0E8
:10083000600E226E000E236EF80E246EFF0E256EE3
:100840003DC026F03EC027F000EC80F01E0E426E48
:100850001200420612000600FACF02F0FBCF03F0AE
:10086000E9CF04F0EACF05F0E1CF06F0E2CF07F0E0
:10087000D9CF08F0DACF09F0F3CF0AF0F4CF0BF0BC
:10088000F6CF0CF0F7CF0DF0F8CF0EF0F5CF0FF05C
:10089000F2BAF2A440D0F294D59EFB0ED76E1B0E96
:1008A000D66ED58E452A4550030B030AD8A409D02D
:1008B000432A190E4318D8A404D0010E446E000E2A
:1008C000436E45C001F0010E011688500118FE0B61
:1008D0000118886E45C001F0070E01164E50015CEC
:1008E000D8B002D0838801D0839845C001F0070EAC
:1008F00001164D50015CD8B002D0838A01D0839A92
:1009000045C001F0070E01164C50015CD8B002D072
:10091000838601D083960FC0F5FF0EC0F8FF0DC08F
:10092000F7FF0CC0F6FF0BC0F4FF0AC0F3FF09C0CD
:10093000DAFF08C0D9FF07C0E2FF06C0E1FF05C02B
:10094000EAFF04C0E9FF03C0FBFF02C0FAFF5092B8
:10095000110012C014F0156A166A1134143601E33E
:10096000158014501E6E1E50D8A409D0000E106EB3
:10097000000E116E000E126E000E136E1200170E96
:10098000146E10C015F011C016F012C017F0142824
:10099000186E04D0D890173216321532182EFAD7A6
:1009A0001550196E118EFF0E1016FF0E1116000E47
:1009B000121610501A6E11501B6E12501C6E1D6ACA
:1009C0008E0E1E5E1EAE16D01E50800A8F0FD8B03F
:1009D00009D0000E106E000E116E000E126E000E89
:1009E000136E1200D8901D321C321B321A321E3E7A
:1009F000F9D715D0170E1E640FD0000E106E000E22
:100A0000116E000E126E000E136E1200D8901A3680
:100A10001B361C361D361E061E50D8A4F7D719509B
:100A2000D8B408D01D1E1C1E1B1E1A6C000E1B22E3
:100A30001C221D221AC010F01BC011F01CC012F0A5
:100A40001DC013F012001350D8B405D0105011106F
:100A50001210D8A40CD0000E106E000E116E000EF5
:100A6000126E1200132AD890123211321032000E78
:100A70001014156E000E1114166EFE0E1214176E61
:100A8000155016101710D8B40CD0ECD7132A010E3D
:100A90001026000E1122000E1222D89012321132AE
:100AA0001032000E1014156E000E1114166EFF0E8B
:100AB0001214176E155016101710D8B406D0E6D7BA
:100AC0001306D89010361136123611BE03D0020E1E
:100AD0001360F6D713A0119ED89013321350121240
:100AE0001450D8A4128E10C010F011C011F012C012
:100AF00012F01200000E956E000E836E9C8EC9ECF3
:100B000087F0A50E116EFF0E126E0AEC87F01DEC39
:100B100088F0D0EC86F007EC88F091EC86F029ECB8
:100B200086F0000E4F6E4FEC86F0000E116E010E37
:100B3000106E15EC88F0000E116E000E106E18ECA1
:100B400088F0000EE0EC87F0000ED7EC87F0000E86
:100B5000116E000E106E18EC88F0120015D015C042
:100B6000F6FF16C0F7FF000EF86E0F0EF76403D005
:100B70000800F55005D0F6CFE9FFF7CFEAFFEF50B8
:100B800025EC87F0154A162A15C0F6FF16C0F7FFA8
:100B9000000EF86E0F0EF76403D00800F55005D074
:100BA000F6CFE9FFF7CFEAFFEF500009D8B4120003
:100BB000D6D7000E1C6E000E1B6E18501910D8B43C
:100BC0001CD0010E1A6E04D0D890183619361A2A85
:100BD00019AEFAD7D8901B361C361850165C19502F
:100BE0001758D8A005D01850165E1950175A1B80F8
:100BF000D890193218321A2EEDD71BC016F01CC02F
:100C000017F01200106E080E116E10C03FF0829A9D
:100C10003FBE828A00F000F082A803D0D8803F3621
:100C200003D03F503F243F6E828600F000F000F07A
:100C300000F000F000F000F000F000F000F000F034
:100C40008296829A3FBE828A11061150D8B4120051
:100C5000E3D7E9EC87F0000E126E010E9CEC87F0F2
:100C6000000E126E000E9CEC87F0000E126E000E4D
:100C7000ABEC87F03F0E3BEC87F00C0E3BEC87F0C3
:100C8000010E3BEC87F0060E3BEC87F0B90E156EBB
:100C9000FF0E166EAEEC85F00BEC88F012000BEC3C
:100CA00088F0000E01EC88F04F50240DFF0EF32465
:100CB000156EFE0EF420166EAEEC85F0400E01ECC3
:100CC00088F04F50240D120EF326000EF422FF0E72
:100CD000F324156EFE0EF420166EAEEC85F01200B5
:100CE0001F502010D8B418D0010E216E04D0D89017
:100CF0001F362036212A20AEFAD71F501D5C205007
:100D00001E58D8A004D01F501D5E20501E5AD890E7
:100D100020321F32212EF1D71DC01DF01EC01EF043
:100D20001200889C889E9A9E9A9C83968398839AA8
:100D300095969598959A000ED76E000ED66E000E79
:100D4000D56ED59ED59CD59AD598D596D590D59269
:100D5000D594FB0ECF6E1D0ECE6EF28AF28ED58E1E
:100D600012007AEC85F0000E00017D6F88909A9059
:100D700088929A9288949A94000E956E4450D8B4B2
:100D8000FDD7000E446E00017D2B88849BEC83F020
:100D900087EC81F051EC87F0000E476E8894EED717
:100DA00092500109926E92500209926E9250080977
:100DB000926EC250C30B0409C26EC292C290CF0E93
:100DC000C116C190C192C194C196C08EC086C08820
:100DD000C08AC050F80B0209C06E1200136E0D0ECF
:100DE000136405D0000E116E000E106E1200C2804A
:100DF00013C012F012461246C2501218C30B12183A
:100E0000C26EC280C282C2B2FED7C3CF10F0C4CFBE
:100E100011F0120011C0F6FF12C0F7FF000EF86EBD
:100E20000800F550FAEC87F0114A122AFA0EF2EC9B
:100E300087F011C0F6FF12C0F7FF000EF86E080031
:100E4000F5500009D8B41200E5D7146E800E126E6A
:100E5000120EABEC87F014C012F0130EABEC87F05F
:100E6000C00E126E120EABEC87F0000E126E120E58
:100E7000ABEC87F01200146E000E126E120EABEC8B
:100E800087F014C012F0130EABEC87F0400E126E18
:100E9000120EABEC87F0000E126E120EABEC87F068
:100EA000120049B002D0839E01D0838E48B002D098
:100EB000839C01D0838C4AB002D0839201D083827C
:100EC0004BB002D0839001D08380120010501202E8
:100ED000F3CF14F0F4CF15F010501302F350152691
:100EE00011501202F350152614C010F015C011F065
:100EF000120018C010F019C011F0126A8E0E136E95
:100F0000000E146E23EC85F010C018F011C019F01B
:100F100012C01AF0120000EE60F0140EEE6AE8063D
:100F2000FDE100EE36F01A0EEE6AE806FDE15090A3
:100F300050920001B1EF86F0136E21EC88F0400E64
:100F400002EC86F0135002EC86F0125002EC86F0B0
:100F50001FEC88F01200136E21EC88F0400E02ECBA
:100F600086F0135002EC86F0125002EC86F01FEC73
:100F700088F01200126E000E116E3A0E126005D04B
:100F80002F0E126402D0010E116E11C010F010303D
:100F90001200000E116E070E106E949C948EAC9889
:100FA00010C0AFFFAC8AAB889D8AAB8E1200106E6A
:100FB0001050D8B402D0030E102610C04DF012000D
:100FC000106E1050D8B402D0030E102610C04EF090
:100FD000120080848288829A829692949488949A4D
:100FE00094961200106E030EE82EFED700F0102E1D
:100FF000FAD71200106E10C0ADFF9EA8FED79E98C3
:101000001200156E1550800F3BEC87F0120095967C
:101010009598959A1200010E3BEC87F0120010C0D3
:1010200048F0120010C04AF0120010C049F012003F
:1010300010C04BF0120047501200938012008084C1
:0610400012008094120072
:020000040020DA
:08000000FFFFFFFFFFFFFFFF00
:020000040030CA
:0E000000FF021F1EF38385FFFFC0FFE0FF40DD
:00000001FF
