:0400000007EF00F016
:0A0008004F8259ED81F05EEF84F0A5
:10FEF4000001000A006400E80310272020436C6915
:10FF04006D61206973204F4646202000002D2D2D61
:10FF14002D2D2D2D2D2D2D2D2D2D2D2D2D00005440
:10FF2400653A2B2020432054693A2B20204320009B
:10FF34000052656365202020202020203C2020439F
:10FF44003E000054653A2B2020432054693A2B206C
:10FF5400204320000043616C6420202020202020C6
:10FF64003C2020433E000054653A2B20204320547B
:10FF7400693A2B20204320000056656E742020200F
:10FF8400202020202020204320000048533A2564CC
:10FF94002C20484C3A25642C2043533A25642C20C9
:10FFA400000A0D496E697469616C697A696E672E1D
:10FFB4002E2E0A0D004C434420696E6974202E2EA7
:10FFC4002E007C2E2E2E2E007C7C2E2E2E007C7C51
:10FFD4007C2E2E007C7C7C7C2E007C7C7C7C7C00BB
:10FFE400253032640043616C6400526563650056D9
:0CFFF400656E74002564003C003E0000B7
:020000040001F9
:10000000260E306E000E316E3FD1250E3818D8B452
:1000100009D022C0D9FF23C0DAFF38C0DFFF224A4F
:10002000232A32D1000E376E000E366E000E356E6A
:1000300003D03584244A252A24C0F6FF25C0F7FFC3
:10004000000EF86E0800F550300AD8B4F2D724C07C
:10005000F6FF25C0F7FF000EF86E0800F5508DEC96
:1000600084F0D8A036D0000E376E000E366E36C043
:1000700010F037C011F0000E136E0A0E126E4BEC2A
:1000800084F010C036F011C037F0D00E2C6EFF0E89
:100090002D6E24C0F6FF25C0F7FF000EF86E080095
:1000A000F5502E6E2F6A2C502E262D502F222E50BA
:1000B00036262F503722244A252A24C0F6FF25C091
:1000C000F7FF000EF86E0800F5508DEC84F0D8B004
:1000D000CED724C0F6FF25C0F7FF244A252A000EFC
:1000E000F86E0800F5CF38F03850000AD8B4DAD0EE
:1000F000640AD8B403D00D0AD8A4C6D030C0D9FF42
:1001000031C0DAFFDECF33F0DDCF34F0020E30261F
:10011000000E312234AE06D0030E3512336C341E7D
:10012000D8B0342A010E386E050E3818D8B415D060
:100130003850020DF50EF324F66EFE0EF420F76E25
:10014000F86A000EF8220900F550335C0900F550FA
:100150003458D8A002D0382AE7D736503710D8B450
:1001600009D035C02CF0030E2C16D8B403D03606B7
:10017000D8A03706800E38BE7F0E2C6E3650385C05
:100180003750800A2C58D8B007D03850365E000E51
:1001900038BEFF0E375A04D0000E376E000E366E92
:1001A00035A41ED035C02CF0030E2C16D8B408D0C0
:1001B00022C0D9FF23C0DAFF2D0EDF6E224A232A88
:1001C00036503710D8B42DD022C0D9FF23C0DAFF63
:1001D000300EDF6E224A232A3606D8A03706F0D723
:1001E00036503710D8B40FD022C0D9FF23C0DAFF61
:1001F000200EDF6E224A232A3606D8A03706365054
:100200003710D8A4F1D735C02CF0030E2C16D8B473
:1002100008D022C0D9FF23C0DAFF2D0EDF6E224A9C
:10022000232A38C032F02CD03250020DF50EF324C0
:10023000F66EFE0EF420F76EF86A000EF822090042
:10024000F5CF18F00A00F5CF19F033C016F034C01E
:1002500017F0A1EC82F016C01DF017C01EF0000EC2
:10026000206E0A0E1F6E38EC83F01D50300F386E72
:1002700022C0D9FF23C0DAFF38C0DFFF224A232A79
:1002800032063228D8A4D0D724C0F6FF25C0F7FF05
:10029000244A252A000EF86E0800F5CF38F03850B1
:1002A000D8A4B3D622C0D9FF23C0DAFF000EDF6E78
:1002B00012000600FACF02F0FBCF03F0E9CF04F002
:1002C000EACF05F0E1CF06F0E2CF07F0D9CF08F092
:1002D000DACF09F0F3CF0AF0F4CF0BF0F6CF0CF041
:1002E000F7CF0DF0F8CF0EF0F5CF0FF0F2BAF2A481
:1002F00040D0F294D59EFB0ED76E1B0ED66ED58ED7
:10030000442A4450030B030AD8A409D0422A190EE8
:100310004218D8A404D0010E436E000E426E44C0B1
:1003200001F0010E011688500118FE0B0118886EAD
:1003300044C001F0070E01164D50015CD8B002D048
:10034000838801D0839844C001F0070E01164C50F9
:10035000015CD8B002D0838A01D0839A44C001F0F6
:10036000070E01164B50015CD8B002D0838601D035
:1003700083960FC0F5FF0EC0F8FF0DC0F7FF0CC04D
:10038000F6FF0BC0F4FF0AC0F3FF09C0DAFF08C094
:10039000D9FF07C0E2FF06C0E1FF05C0EAFF04C0C5
:1003A000E9FF03C0FBFF02C0FAFF4F921100000EED
:1003B0000001786F000E776F000E0001796F000E5C
:1003C00081B0010E0001796F000179510001D8A4BC
:1003D00007D0405000017919D8B402D0010E466E02
:1003E00079C040F0000ED3EC83F010C077F011C05C
:1003F00078F077C074F078C075F0060E0001766F63
:100400000001D890753374330001762FF9D70001BD
:100410007451150F456E4150D8A432D0010ED3EC63
:1004200083F010C077F011C078F077C010F078C07A
:1004300011F0000E136E050E126E4BEC84F0700E70
:100440001024166EFE0E1120176E000E196E130E7C
:10045000186EA1EC82F016C03AF017C03BF0600EA7
:10046000226E000E236EF80E246EFF0E256E3AC02B
:1004700026F03BC027F000EC80F01E0E416E12000B
:1004800041061200000E956E000E836E9C8E9CEC51
:1004900084F0A50E116EFF0E126EEFEC83F0E8EC07
:1004A00084F098EC83F0DAEC84F059EC83F0F1EC12
:1004B00082F0000E4E6E17EC83F0000E116E010EEE
:1004C000106EE2EC84F0000E116E000E106EE5EC82
:1004D00084F0000EB3EC84F0000EAAEC84F0000E61
:1004E000116E000E106EE5EC84F0120015D015C0F0
:1004F000F6FF16C0F7FF000EF86E0F0EF76403D07C
:100500000800F55005D0F6CFE9FFF7CFEAFFEF502E
:100510000AEC84F0154A162A15C0F6FF16C0F7FF3C
:10052000000EF86E0F0EF76403D00800F55005D0EA
:10053000F6CFE9FFF7CFEAFFEF500009D8B4120079
:10054000D6D7000E1C6E000E1B6E18501910D8B4B2
:100550001CD0010E1A6E04D0D890183619361A2AFB
:1005600019AEFAD7D8901B361C361850165C1950A5
:100570001758D8A005D01850165E1950175A1B806E
:10058000D890193218321A2EEDD71BC016F01CC0A5
:1005900017F01200106E080E116E10C03EF0829A15
:1005A0003EBE828A00F000F082A803D0D8803E369A
:1005B00003D03E503E243E6E828600F000F000F0F4
:1005C00000F000F000F000F000F000F000F000F0AB
:1005D0008296829A3EBE828A11061150D8B41200C9
:1005E000E3D7BCEC84F0000E126E010E6FEC84F0C9
:1005F000000E126E000E6FEC84F0000E126E000EF4
:100600007EEC84F03F0E20EC84F00C0E20EC84F0A5
:10061000010E20EC84F0060E20EC84F0B90E156E6D
:10062000FF0E166E76EC82F0DEEC84F01200DEEC4B
:1006300084F0000ED4EC84F04E50240DFF0EF32411
:10064000156EFE0EF420166E76EC82F0400ED4ECA1
:1006500084F04E50240D120EF326000EF422FF0EED
:10066000F324156EFE0EF420166E76EC82F0120066
:100670001F502010D8B418D0010E216E04D0D8908D
:100680001F362036212A20AEFAD71F501D5C20507D
:100690001E58D8A004D01F501D5E20501E5AD8905E
:1006A00020321F32212EF1D71DC01DF01EC01EF0BA
:1006B0001200889C889E9A9E9A9C83968398839A1F
:1006C00095969598959A000ED76E000ED66E000EF0
:1006D000D56ED59ED59CD59AD598D596D590D592E0
:1006E000D594FB0ECF6E1D0ECE6EF28AF28ED58E95
:1006F0001200600E226E000E236E8F0E246EFF0E0F
:10070000256E4CC026F0276A4BC028F0296A4DC0E0
:100710002AF02B6A00EC80F04E50000AD8B4120088
:10072000010AD8B41200030AD8B41200010A120058
:1007300092500109926E92500209926E92500809ED
:10074000926EC250C30B0409C26EC292C290CF0E09
:10075000C116C190C192C194C196C08EC086C08896
:10076000C08AC050F80B0209C06E120042EC82F041
:10077000000E396E88909A9088929A9288949A94F2
:10078000000E956E4350D8B4FDD7000E436E392A43
:100790008884D7EC81F079EC83F036EC84F0000E9D
:1007A000466E8894EFD7136E0D0E136405D0000EBD
:1007B000116E000E106E1200C28013C012F01246AD
:1007C0001246C2501218C30B1218C26EC280C282E7
:1007D000C2B2FED7C3CF10F0C4CF11F0120011C0C7
:1007E000F6FF12C0F7FF000EF86E0800F550CDECD2
:1007F00084F0114A122AFA0EC5EC84F011C0F6FFFB
:1008000012C0F7FF000EF86E0800F5500009D8B4CA
:100810001200E5D7146E800E126E120E7EEC84F07C
:1008200014C012F0130E7EEC84F0C00E126E120E85
:100830007EEC84F0000E126E120E7EEC84F012003C
:10084000146E000E126E120E7EEC84F014C012F0C4
:10085000130E7EEC84F0400E126E120E7EEC84F0CD
:10086000000E126E120E7EEC84F0120048B002D020
:10087000839E01D0838E47B002D0839C01D0838CAD
:1008800049B002D0839201D083824AB002D08390D3
:1008900001D08380120010501202F3CF14F0F4CF75
:1008A00015F010501302F350152611501202F35098
:1008B000152614C010F015C011F0120000EE60F003
:1008C000140EEE6AE806FDE100EE3AF0150EEE6A4F
:1008D000E806FDE14F904F920001B6EF83F0136EF2
:1008E000ECEC84F0400ECAEC82F01350CAEC82F0BB
:1008F0001250CAEC82F0EAEC84F01200136EECECB9
:1009000084F0400ECAEC82F01350CAEC82F0125010
:10091000CAEC82F0EAEC84F01200126E000E116E46
:100920003A0E126005D02F0E126402D0010E116E25
:1009300011C010F010301200000E116E070E106E74
:10094000949C948EAC9810C0AFFFAC8AAB889D8A03
:10095000AB8E1200106E1050D8B402D0030E1026C9
:1009600010C04CF01200106E1050D8B402D0030E1C
:10097000102610C04DF0120080848288829A8296E0
:1009800092949488949A94961200106E030EE82E16
:10099000FED700F0102EFAD71200106E10C0ADFF77
:1009A0009EA8FED79E981200156E1550800F20EC61
:1009B00084F0120095969598959A1200010E20ECFD
:1009C00084F0120010C048F0120010C04AF012006B
:0C09D000938012008084120080941200BA
:020000040020DA
:08000000FFFFFFFFFFFFFFFF00
:020000040030CA
:0E000000FF021F1EF38385FFFFC0FFE0FF40DD
:00000001FF
