:040000008EEF0AF085
:101000000001000A006400E8031027507265737342
:1010100065642020202020202020004E6F74207046
:1010200072657373656420202020002056616C7502
:07103000653A202564000071
:10103800110E146E000E156E94D0250E1A18D8B421
:1010480009D00DC0D9FF0EC0DAFF1AC0DFFF0D4A64
:101058000E2A87D0000E166E0FC0F6FF10C0F7FFDD
:101068000F4A102A000EF86E0800F5CF1AF01A5031
:10107800000AD8B484D0640AD8B403D00D0AD8A41E
:1010880070D014C0D9FF15C0DAFFDECF18F0DDCF5D
:1010980019F0020E1426000E152219AE06D0030E02
:1010A8001612186C191ED8B0192A010E1A6E050EE0
:1010B8001A18D8B415D01A50020D010EF324F66E82
:1010C800100EF420F76EF86A000EF8220900F550A9
:1010D800185C0900F5501958D8A002D01A2AE7D789
:1010E80016C013F0030E1316D8B408D00DC0D9FFDC
:1010F8000EC0DAFF2D0EDF6E0D4A0E2A1AC017F049
:101108002CD01750020D010EF324F66E100EF420A9
:10111800F76EF86A000EF8220900F5CF03F00A000E
:10112800F5CF04F018C001F019C002F0D5EC09F0B1
:1011380001C008F002C009F0000E0B6E0A0E0A6E1C
:1011480026EC0AF00850300F1A6E0DC0D9FF0EC0F9
:10115800DAFF1AC0DFFF0D4A0E2A17061728D8A48F
:10116800D0D70FC0F6FF10C0F7FF0F4A102A000EA5
:10117800F86E0800F5CF1AF01A50D8A45ED70DC043
:10118800D9FF0EC0DAFF000EDF6E12009294808441
:10119800020E016E800E026E020EAAEC09F0000E1D
:1011A800036E010EA3EC0AF0000E036E000EA3EC12
:1011B8000AF0000E036E000EB0EC0AF03F0E78EC59
:1011C8000AF03F0E78EC0AF03F0E78EC0AF00C0EAD
:1011D80078EC0AF00C0E78EC0AF00C0E78EC0AF0B9
:1011E800010E78EC0AF0010E78EC0AF0010E78ECAA
:1011F8000AF0060E78EC0AF0060E78EC0AF0060EF5
:1012080078EC0AF0CFEC0AF0CFEC0AF0CFEC0AF059
:101218001200000E81B0010E2C6E000E80B8010E77
:101228002B6E000EC9EC0AF01B0E0D6E000E0E6E32
:101238002B0E0F6E100E106E32C011F033C012F06C
:101248001CEC08F01B0E066E000E076E7FEC09F012
:101258002C50D8A403D03050D8B403D02F50D8A4E1
:1012680011D0324A332A010E306E33BE03D0330414
:10127800D8B003D032C08CFF1200000E336E000EBF
:10128800326E12002C04D8A41200000E306E120028
:10129800000E81B0010E2B6E000EC9EC0AF01B0E79
:1012A8000D6E000E0E6E2B0E0F6E100E106E34C0EB
:1012B80011F035C012F01CEC08F01B0E066E000E83
:1012C800076E7FEC09F02B50D8A40FD03150D8A46A
:1012D8000CD0344A352A010E316E35BE03D03504A0
:1012E800D8B0120034C08CFF12002B04D8A412000E
:1012F800000E316E120015D006C0F6FF07C0F7FFCA
:10130800000EF86E0F0EF76403D00800F55005D0F4
:10131800F6CFE9FFF7CFEAFFEF5062EC0AF0064A92
:10132800072A06C0F6FF07C0F7FF000EF86E0F0E7B
:10133800F76403D00800F55005D0F6CFE9FFF7CFE2
:10134800EAFFEF500009D8B41200D6D7036E3F0E5B
:10135800C716000EC66E0350C6120250C71205D03B
:10136800C78C13D0C78CC68810D00150000AD8B4D7
:10137800F7D7020AD8B4F6D7010AD8B4F4D705D0FB
:10138800978E94860AD0949608D00350040AD8B44D
:10139800F7D7010AD8B4F5D7F6D79488949AC68AAD
:1013A8001200000E066E000E056E03500410D8B42D
:1013B8001CD0010E076E04D0D89003360436072AD5
:1013C80004AEFAD7D890053606360350015C0450AF
:1013D8000258D8A005D00350015E0450025A058077
:1013E800D89004320332072EEDD705C001F006C0AD
:1013F80002F01200D3EC0AF0CAEC08F0CAEC08F0CC
:10140800CAEC08F0000E956E000E8C6E08D047EC02
:101418000AF005D04CEC09F002D00DEC09F036C00A
:101428002DF037C02EF02E50000AD8A4F8D72D5032
:10143800010AD8B4ECD7030AD8B4ECD7010AD8B457
:10144800ECD7EDD70A500B10D8B418D0010E0C6E9B
:1014580004D0D8900A360B360C2A0BAEFAD70A50AD
:10146800085C0B500958D8A004D00A50085E0B50ED
:10147800095AD8900B320A320C2EF1D708C008F05E
:1014880009C009F01200000E81B0010E086E085064
:10149800D8A40AD0000EC9EC0AF00B0E066E100E86
:1014A800076E7FEC09F01200000EC9EC0AF01B0E63
:1014B800066E100E076E7FEC09F01200056E800EA6
:1014C800036E120EB0EC0AF005C003F0130EB0EC78
:1014D8000AF0C00E036E120EB0EC0AF0000E036E96
:1014E800120EB0EC0AF01200056E000E036E120E1A
:1014F800B0EC0AF005C003F0130EB0EC0AF0400E91
:10150800036E120EB0EC0AF0000E036E120EB0EC71
:101518000AF01200AC0EF66E150EF76E000EF86E9D
:101528000900F5CF36F00900F5CF37F000EE2FF0BF
:10153800070EEE6AE806FDE10001FEEF09F0046E11
:101548008094400EBDEC0AF00450BDEC0AF0035044
:10155800BDEC0AF080841200046E8094400EBDEC4D
:101568000AF00450BDEC0AF00350BDEC0AF0808488
:101578001200026EC9CF01F09E96C69E02C0C9FF36
:10158800C6BE12009EB61200FDD7066E0650800F2A
:1015980078EC0AF01200010E78EC0AF01200938041
:0615A8009288120003000E
:020000040020DA
:08000000FFFFFFFFFFFFFFFF00
:020000040030CA
:0E000000FF021F1EF38381FFFFC0FFE0FF40E1
:00000001FF
