:04000000A1EF0BF071
:101000000001000A006400E80310272020202020AF
:101010005354415445203120202020000050524597
:1010200053532052423020425554544F4E0000201A
:1010300020202020535441544520322020202000DD
:101040000020202020205741495420313073202097
:1010500020000020202020205354415445203320DC
:10106000202020000050524553532052423020424D
:101070005554544F4E0000496E70757420743A20D8
:1010800025642020200053544154455F434F4F4C6A
:1010900020200053544154455F48454154202000CE
:1010A00053544154455F56454E54202000535441FB
:1010B00054455F4F464620200000E8D00A0E376EA8
:1010C000000E386EAD0E396E100E3A6E54EC09F00B
:1010D0000150D8A404D07DEC0BF0010E016E000E7F
:1010E0002C6E000E2B6EC6EC0BF0000E2C6E000E5C
:1010F0002B6EC3EC0BF0000E2C6E000E2B6EC0ECB2
:101100000BF0C9EC0BF00009D8B41200000E016E10
:10111000010E036E1200000E2C6E000E2B6EC6EC3C
:101120000BF0000E2C6E000E2B6EC3EC0BF0000EBD
:101130002C6E010E2B6EC0EC0BF00A0E376E000EFB
:10114000386EA00E396E100E3A6E54EC09F0015054
:10115000D8A404D07DEC0BF0010E016EC9EC0BF0AD
:101160000009D8B405D0000E016E000E036E120007
:101170002A50055CD8B005D0000E016E020E036E39
:10118000120005502A5CD8B01200000E016E030E4A
:10119000036E12000A0E376E000E386E860E396E20
:1011A000100E3A6E54EC09F00150D8A404D07DEC36
:1011B0000BF0010E016E000E2C6E010E2B6EC3ECB7
:1011C0000BF0000E2C6E000E2B6EC6EC0BF0000E1A
:1011D0002C6E010E2B6EC0EC0BF0C9EC0BF000096D
:1011E000D8B405D0000E016E000E036E120005503B
:1011F0002A5CD8B005D0000E016E030E036E1200FB
:1012000005502A18D8A41200000E016E010E036EBC
:1012100012000A0E376E000E386E930E396E100EE5
:101220003A6E54EC09F00150D8A404D07DEC0BF0D8
:10123000010E016E000E2C6E010E2B6EC6EC0BF033
:10124000000E2C6E000E2B6EC3EC0BF0000E2C6EFD
:10125000010E2B6EC0EC0BF0C9EC0BF00009D8B4FA
:1012600003D0000E036E12002A50055CD8B005D0E2
:10127000000E016E020E036E120005502A18D8A44B
:101280001200000E016E010E036E12000350000AE0
:10129000D8B414D7010AD8B43ED7030AD8B47AD741
:1012A000010AD8A41200B5D73B0E3E6E000E3F6E69
:1012B00094D0250E4418D8B409D037C0D9FF38C00F
:1012C000DAFF44C0DFFF374A382A87D0000E406E6D
:1012D00039C0F6FF3AC0F7FF394A3A2A000EF86ED5
:1012E0000800F5CF44F04450000AD8B484D0640A12
:1012F000D8B403D00D0AD8A470D03EC0D9FF3FC0E7
:10130000DAFFDECF42F0DDCF43F0020E3E26000EC4
:101310003F2243AE06D0030E4012426C431ED8B0AB
:10132000432A010E446E050E4418D8B415D044501B
:10133000020D010EF324F66E100EF420F76EF86A1B
:10134000000EF8220900F550425C0900F5504358A0
:10135000D8A002D0442AE7D740C03DF0030E3D1686
:10136000D8B408D037C0D9FF38C0DAFF2D0EDF6EF1
:10137000374A382A44C041F02CD04150020D010EAA
:10138000F324F66E100EF420F76EF86A000EF822C1
:101390000900F5CF2DF00A00F5CF2EF042C02BF05A
:1013A00043C02CF058EC0AF02BC032F02CC033F0C4
:1013B000000E356E0A0E346EF1EC0AF03250300F2A
:1013C000446E37C0D9FF38C0DAFF44C0DFFF374A68
:1013D000382A41064128D8A4D0D739C0F6FF3AC0F0
:1013E000F7FF394A3A2A000EF86E0800F5CF44F0AC
:1013F0004450D8A45ED737C0D9FF38C0DAFF000EFA
:10140000DF6E120015D030C0F6FF31C0F7FF000EBE
:10141000F86E0F0EF76403D00800F55005D0F6CF34
:10142000E9FFF7CFEAFFEF5012EC0BF0304A312A18
:1014300030C0F6FF31C0F7FF000EF86E0F0EF764F4
:1014400003D00800F55005D0F6CFE9FFF7CFEAFF4B
:10145000EF500009D8B41200D6D72D6E3F0EC71634
:10146000000EC66E2D50C6122C50C71205D0C78C68
:1014700013D0C78CC68810D02B50000AD8B4F7D729
:10148000020AD8B4F6D7010AD8B4F4D705D0978E9B
:1014900094860AD0949608D02D50040AD8B4F7D771
:1014A000010AD8B4F5D7F6D79488949AC68A120060
:1014B000000E306E000E2F6E2D502E10D8B41CD0A2
:1014C000010E316E04D0D8902D362E36312A2EAE34
:1014D000FAD7D8902F3630362D502B5C2E502C5802
:1014E000D8A005D02D502B5E2E502C5A2F80D8908E
:1014F0002E322D32312EEDD72FC02BF030C02CF0F4
:10150000120089EC0BF02A0E2B6E000E2C6E53ECA1
:101510000BF031EC0BF05DEC08F043EC0BF01A0E25
:10152000376E000E386E770E396E100E3A6E2AC086
:101530003BF03C6A54EC09F0400EB2EC0BF01A0E92
:10154000306E000E316E02EC0AF0000E046EDBD736
:1015500092948084020E2B6E800E2C6E020E2DEC67
:101560000AF0000E2D6E010E63EC0BF0000E2D6ED6
:10157000000E63EC0BF0000E2D6E000E70EC0BF005
:101580003F0ECFEC0AF00C0ECFEC0AF0010ECFECC0
:101590000AF0060ECFEC0AF0BCEC0BF012002F6E36
:1015A000000E2D6E120E70EC0BF0000EAAEC0BF07C
:1015B0002FC02DF0130E70EC0BF0000EAAEC0BF008
:1015C000400E2D6E120E70EC0BF0000EAAEC0BF01C
:1015D000000E2D6E120E70EC0BF0000EAAEC0BF04C
:1015E000120034503510D8B418D0010E366E04D025
:1015F000D89034363536362A35AEFAD73450325C88
:1016000035503358D8A004D03450325E3550335A58
:10161000D89035323432362EF1D732C032F033C062
:1016200033F012002F6E800E2D6E120E70EC0BF048
:10163000000EAAEC0BF02FC02DF0130E70EC0BF087
:10164000C00E2D6E120E70EC0BF0000EAAEC0BF01B
:10165000000E2D6E120E70EC0BF0000EAAEC0BF0CB
:101660001200000E2B6E000E81B0010E2B6E2B505F
:10167000D8A406D002502B18D8B402D0010E046EA4
:101680002BC002F0120008B002D0839801D08388EA
:1016900006B002D0839C01D0838C07B002D0839E19
:1016A00001D0838E1200010EC26E0E0EC16E3A0E74
:1016B000C06EC282C2B2FED72BC0D9FF2CC0DAFFE7
:1016C000C4CFDFFF12002E6E8094400E95EC0BF01D
:1016D0002E5095EC0BF02D5095EC0BF08084120001
:1016E0002E6E8094400E95EC0BF02E5095EC0BF086
:1016F0002D5095EC0BF080841200BCEC0BF0000E2A
:10170000B2EC0BF00A0E306E000E316E02EC0AF0F5
:101710001200B8EC0BF0000E956E9C8E000E836EDE
:10172000A8EC0AF0320E056E12002C6EC9CF2BF019
:101730009E96C69E2CC0C9FFC6BE12009EB6120061
:10174000FDD700EE01F02A0EEE6AE806FDE1000189
:1017500081EF0AF02B6E030EE82EFED700F02B2E41
:10176000FAD71200306E3050800FCFEC0AF0120022
:1017700093500109936E1200010ECFEC0AF0120093
:101780002BC007F012002BC006F012002BC008F08F
:06179000120004501200DB
:020000040020DA
:08000000FFFFFFFFFFFFFFFF00
:020000040030CA
:0E000000FF021F1EF38385FFFFC0FFE0FF40DD
:00000001FF
