:0400000048EF1BF0BA
:1010000000010000000A00000064000000E8030086
:101010000010270000A086010040420F0080969833
:101020000000E1F50500CA9A3B00803F0020410026
:10103000C842007A44401C4650C34724744997185C
:101040004BBCBE4C6B6E4E03155079AD60F34971CD
:1010500000803FCDCC3DD7233C12833AB7D138C670
:101060002737388635C0D633CC2B32708930E7DB52
:101070002EE53C1E42A20D252E3467205620202549
:1010800064202020202020202020202020002564F3
:10109000202D3E20252E3467205620202020202081
:1010A0002020202000252E34672056202025642073
:1010B00020202020202020200000640E0001756FD9
:1010C000000E0001766FB2EF10F0250E00018819B6
:1010D000D8B407D060C0D9FF61C0DAFF88C0DFFF95
:1010E000E3D3000E0001786F000E776F62C0F6FF49
:1010F00063C0F7FF000EF86E0800F5502E0AD8A462
:1011000038D00001788D0001624B632B000E000186
:10111000846F000E836F20D083C00FF084C010F066
:10112000000E126E0A0E116EA0EC1BF062C0F6FFEC
:1011300063C0F7FF000EF86E0800F5500F26000E92
:101140001022D00E0F240001836FFF0E102000012B
:10115000846F0001624B632B62C0F6FF63C0F7FF30
:10116000000EF86E0800F550D7EC1BF0D8A00CD09C
:10117000D3D7000E0001846F000E836F00017889C1
:1011800003D0000178831CD062C0F6FF63C0F7FF74
:101190000001624B632B000EF86E0800F5CF88F05B
:1011A00000018851000AD8B4C3EF10F0640AD8B423
:1011B00007D0030AD8B4E5D70E0AD8A4B2EF10F0CE
:1011C000070E00017815D8B4BBEF0FF0000178A925
:1011D00005D0000E0001846F060E836F75C0D9FF25
:1011E00076C0DAFFDECF85F0DECF86F0DDCF87F088
:1011F000030E00017527000E7623000187AF11D082
:1012000085C02DF086C02EF087C02FF0B3EC1BF008
:101210002DC085F02EC086F02FC087F0030E000190
:101220007713000E0001826F000E816F000185515F
:101230000001861100018711D8B491D0820E0001FF
:10124000696FFF0E00016A6F85C06BF086C06CF09D
:1012500087C06DF088C06EF0100E06D00001D890E7
:101260006E336D336C336B33E82EF8D700016B515E
:10127000000169250001816F000E00016A21000153
:10128000826F00018107D8A0820781C00FF082C061
:1012900010F0000E126E030E116EA0EC1BF00FC0CA
:1012A00081F010C082F081C007F082C008F0000E0B
:1012B0000A6E0A0E096E72EC19F007C081F008C0C0
:1012C00082F0000182AF04D000018107D8A082071C
:1012D000000181510008CAEC10F03FC079F040C015
:1012E0007AF041C07BF079C030F07AC031F07BC039
:1012F00032F085C033F086C034F087C035F0B4ECEE
:1013000016F030C079F031C07AF032C07BF079C08D
:1013100055F07AC056F07BC057F0000E586E800E24
:10132000596E3F0E5A6E2AEC19F0D8B005D0000164
:101330008107D8A0820713D079C055F07AC056F043
:101340007BC057F0000E586E200E596E410E5A6E3B
:101350002AEC19F0D8A003D00001814B822B0001A8
:1013600082BF07D00001825108E100018105D8B099
:1013700004D0010E0001886F02D081C088F0000106
:1013800078A397D2000182AF08D0FC0E0001815DE6
:10139000FF0E00018259D8A010D000018351000136
:1013A000815D00018251800A0001696F0001845152
:1013B000800A00016959D8A07CD200018351000144
:1013C0008411D8B407D0000178A304D000018307AA
:1013D000D8A084070001845105E1090E0001835D56
:1013E000D8A004D0080E0001886F02D083C088F016
:1013F000000185510001861100018711D8B4ECD09D
:1014000085C046F086C047F087C048F0000188518B
:10141000000800018125CAEC10F03FC049F040C02F
:101420004AF041C04BF0A8EC17F046C085F047C029
:1014300086F048C087F085C04CF086C04DF087C06C
:101440004EF085C015F086C016F087C017F02EEC60
:1014500017F015C024F016C025F017C026F018C0EC
:1014600027F060EC1AF024C02DF025C02EF026C025
:101470002FF0B3EC1BF02DC049F02EC04AF02FC066
:101480004BF01BEC14F049C055F04AC056F04BC06D
:1014900057F0000E586E000E596E3F0E5A6E2AEC31
:1014A00019F0D8A014D085C049F086C04AF087C092
:1014B0004BF0000E4C6E000E4D6E3F0E4E6E1BEC50
:1014C00014F049C085F04AC086F04BC087F088C050
:1014D00069F000016A6B69BF6A070001D89069373B
:1014E0006A370001D89069376A37040E000169270E
:1014F000000E6A23010E00016925F66E100E6A21A6
:10150000F76EF86A000EF82285C015F086C016F056
:1015100087C017F02EEC17F00900F550155C090094
:10152000F55016580900F55017580900F55018588D
:10153000D8A018D085C030F086C031F087C032F016
:10154000CD0E336ECC0E346E3D0E356EB4EC16F00F
:1015500030C085F031C086F032C087F00001814B89
:10156000822B3AD000018851040D010EF324F66E4F
:10157000100EF420F76EF86A000EF82285C015F000
:1015800086C016F087C017F02EEC17F00900F55052
:10159000155C0900F55016580900F5501758090058
:1015A000F5501858D8B018D085C030F086C031F04A
:1015B00087C032F0000E336E200E346E410E356E51
:1015C000B4EC16F030C085F031C086F032C087F040
:1015D00000018107D8A08207030E000177150001E2
:1015E000696F000E0001781500016A6F00016951F2
:1015F00000016A11D8B409D060C0D9FF61C0DAFF18
:101600002D0EDF6E0001604B612B85C015F086C08A
:1016100016F087C017F02EEC17F015C07DF016C03D
:101620007EF017C07FF018C080F07DC001F07EC052
:1016300002F07FC003F080C004F000018851040D67
:10164000010EF324F66E100EF420F76EF86A000E09
:10165000F8220900F5CF05F00900F5CF06F00900E2
:10166000F5CF07F00A00F5CF08F0B4EC19F00150FF
:10167000300F60C0D9FF61C0DAFFDF6E0001604B40
:10168000612B7DC00EF07EC00FF07FC010F080C0D7
:1016900011F000018851040D010EF324F66E100EB6
:1016A000F420F76EF86A000EF8220900F5CF12F068
:1016B0000900F5CF13F00900F5CF14F00A00F5CFBB
:1016C00015F02DEC1AF00EC07DF00FC07EF010C0AA
:1016D0007FF011C080F00001835100018411D8B463
:1016E0009CD060C0D9FF61C0DAFF2E0EDF6E000112
:1016F000604B612B000188510001835F000E0001E7
:1017000088BFFF0E0001845B6ED0000178A315D066
:1017100000017D5100017E1100017F110001801147
:10172000D8A40BD0000E0001886F00018851000181
:10173000836F846B83BF84076AD07DC001F07EC055
:1017400002F07FC003F080C004F000018851040D56
:10175000010EF324F66E100EF420F76EF86A000EF8
:10176000F8220900F5CF05F00900F5CF06F00900D1
:10177000F5CF07F00A00F5CF08F0B4EC19F00150EE
:10178000300F60C0D9FF61C0DAFFDF6E0001604B2F
:10179000612B7DC00EF07EC00FF07FC010F080C0C6
:1017A00011F000018851040D010EF324F66E100EA5
:1017B000F420F76EF86A000EF8220900F5CF12F057
:1017C0000900F5CF13F00900F5CF14F00A00F5CFAA
:1017D00015F02DEC1AF00EC07DF00FC07EF010C099
:1017E0007FF011C080F00001880700018829D8B47B
:1017F0000ED08BD760C0D9FF61C0DAFF300EDF6E2C
:101800000001604B612B00018307D8A08407000111
:10181000835100018411D8A4EDD760C0D9FF61C005
:10182000DAFF650EDF6E0001604B612B000182AFB5
:101830000FD00001816D821FD8B0822B60C0D9FF0C
:1018400061C0DAFF2D0E09D00001604B612B07D07B
:1018500060C0D9FF61C0DAFF2B0EDF6EF5D781C003
:1018600007F082C008F0000E0A6E0A0E096E72ECD4
:1018700019F00750300F60C0D9FF61C0DAFFDF6E8A
:101880000001604B612B81C001F082C002F0000EAC
:10189000046E0A0E036EF5EC19F00150300F60C0B3
:1018A000D9FF61C0DAFFDF6E0001604B612BB2EF40
:1018B00010F0000178A307D1000182AF12D0010E11
:1018C000000181250001696F000E000182210001E5
:1018D0006A6F000169510001835F00016A510001D4
:1018E000845B85C015F086C016F087C017F02EEC1B
:1018F00017F015C07DF016C07EF017C07FF018C03D
:1019000080F0000E0001886F0A0E00018819D8B41B
:1019100021D000018851040D010EF324F66E100E43
:10192000F420F76EF86A000EF8220900F550000165
:101930007D5D0900F55000017E590900F550000158
:101940007F590900F55000018059D8A003D000014B
:10195000882BDAD7000188510001835F000E000157
:1019600088BFFF0E0001845B000184BF08D0000126
:1019700084511DE10D0E0001835DD8B018D085C0E3
:1019800049F086C04AF087C04BF000018351E6EC75
:1019900012F03FC04CF040C04DF041C04EF01BEC87
:1019A00014F049C085F04AC086F04BC087F00001B2
:1019B0008351CAEC10F03FC072F040C073F041C0D8
:1019C00074F072C030F073C031F074C032F085C072
:1019D0004CF086C04DF087C04EF07DC024F07EC034
:1019E00025F07FC026F080C027F060EC1AF024C0FC
:1019F0002DF025C02EF026C02FF0B3EC1BF02DC02B
:101A000049F02EC04AF02FC04BF01BEC14F049C037
:101A100033F04AC034F04BC035F0B4EC16F030C0AF
:101A200072F031C073F032C074F072C015F073C040
:101A300016F074C017F02EEC17F015C07DF016C02C
:101A40007EF017C07FF018C080F01ED07DC001F07E
:101A50007EC002F07FC003F080C004F00A0E056E65
:101A6000000E066E000E076E000E086EB4EC19F044
:101A700001C07DF002C07EF003C07FF004C080F0A2
:101A800000018307D8A0840700018351000184115D
:101A9000D8B43CD07DC00EF07EC00FF07FC010F0F7
:101AA00080C011F00A0E126E000E136E000E146E3E
:101AB000000E156E2DEC1AF00E500F1010101110B4
:101AC000D8A424D0C3D7000184BF08D0000184511A
:101AD0001DE10D0E0001835DD8B018D085C049F01E
:101AE00086C04AF087C04BF000018351E6EC12F04B
:101AF0003FC04CF040C04DF041C04EF01BEC14F024
:101B000049C085F04AC086F04BC087F0000182BF13
:101B100008D00001825126E10A0E0001815DD8B093
:101B200021D0000185510001861100018711D8B430
:101B30005BD085C015F086C016F087C017F02EEC7C
:101B400017F01550161017101810D8A44DD000011A
:101B500082BF4AD00001825105E1020E0001815D81
:101B6000D8A042D079C055F07AC056F07BC057F06B
:101B7000700E586E890E596E400E5A6E2AEC19F08E
:101B8000D8B003D00001F70E02D00001F80E812773
:101B9000FF0E822300018151CAEC10F03FC079F0A2
:101BA00040C07AF041C07BF085C001F086C002F0F1
:101BB00087C003F079C004F07AC005F07BC006F05E
:101BC000F1EC14F001C07DF002C07EF003C07FF0A4
:101BD00004C080F0000E0001856F000E0001866FCA
:101BE000000E0001876F33D085C015F086C016F057
:101BF00087C017F02EEC17F015C07DF016C07EF0F0
:101C000017C07FF018C080F085C055F086C056F030
:101C100087C057F07DC024F07EC025F07FC026F03D
:101C200080C027F060EC1AF024C058F025C059F0AD
:101C300026C05AF00CEC1BF055C085F056C086F05B
:101C400057C087F0000E0001826F000E816F010EF9
:101C50000001886F0A0E00018819D8B421D0000154
:101C60008851040D010EF324F66E100EF420F76E69
:101C7000F86A000EF8220900F55000017D5D0900A8
:101C8000F55000017E590900F55000017F59090007
:101C9000F55000018059D8A003D00001882BDAD775
:101CA000030E000177150001696F000E0001781521
:101CB00000016A6F0001695100016A11D8B457D060
:101CC00060C0D9FF61C0DAFF2D0E4FD00001604B1C
:101CD000612B4DD07DC001F07EC002F07FC003F0CB
:101CE00080C004F000018851040D010EF324F66E4B
:101CF000100EF420F76EF86A000EF8220900F5CFF6
:101D000005F00900F5CF06F00900F5CF07F00A004D
:101D1000F5CF08F0B4EC19F001C079F002C07AF008
:101D200003C07BF004C07CF079C00EF07AC00FF0E5
:101D30007BC010F07CC011F00A0E126E000E136E04
:101D4000000E146E000E156E2DEC1AF00EC079F018
:101D50000FC07AF010C07BF011C07CF00001795107
:101D6000300F60C0D9FF61C0DAFFDF6EAFD700016E
:101D7000880700018829D8B40ED0ACD760C0D9FF3D
:101D800061C0DAFF300EDF6E0001604B612B000195
:101D90008107D8A08207000182BF07D000018251CD
:101DA000EDE100018105D8B0E9D7000184BF0CD076
:101DB0000001845105E1090E0001835DD8A004D023
:101DC000080E0001886F02D083C088F0000188519E
:101DD0000001835F000E000188BFFF0E0001845BDD
:101DE000000188510001D8B409D060C0D9FF61C09A
:101DF000DAFF2E0EDF6E0001604B612B000188516F
:101E0000CAEC10F03FC06FF040C070F041C071F0FC
:101E100085C033F086C034F087C035F06FC030F035
:101E200070C031F071C032F0B4EC16F030C015F073
:101E300031C016F032C017F02EEC17F015C07DF04F
:101E400016C07EF017C07FF018C080F079D07DC03A
:101E500001F07EC002F07FC003F080C004F00001FA
:101E60008851040D010EF324F66E100EF420F76E67
:101E7000F86A000EF8220900F5CF05F00900F5CF49
:101E800006F00900F5CF07F00A00F5CF08F0B4EC32
:101E900019F001C079F002C07AF003C07BF004C0F1
:101EA0007CF079C00EF07AC00FF07BC010F07CC0DF
:101EB00011F00A0E126E000E136E000E146E000E5C
:101EC000156E2DEC1AF00EC079F00FC07AF010C02C
:101ED0007BF011C07CF000017951300F60C0D9FF58
:101EE00061C0DAFFDF6E0001604B612B7DC00EF038
:101EF0007EC00FF07FC010F080C011F0000188514B
:101F0000040D010EF324F66E100EF420F76EF86A3D
:101F1000000EF8220900F5CF12F00900F5CF13F0FA
:101F20000900F5CF14F00A00F5CF15F02DEC1AF0EA
:101F30000EC07DF00FC07EF010C07FF011C080F0A9
:101F40000001880700018829D8B40ED080D760C06E
:101F5000D9FF61C0DAFF300EDF6E0001604B612BEC
:101F600000018307D8A08407000183510001841178
:101F7000D8B4F8D0ECD775C0D9FF76C0DAFFDECF81
:101F80007DF0DDCF7EF00001000E7EBFFF0E7F6F83
:101F9000806F020E00017527000E7623000180AFCE
:101FA0000CD0030E000177130001801F7F1F7E1FDE
:101FB0007D6D000E7E237F2380230001835100016D
:101FC0008411D8A40DD000017D5100017E110001C3
:101FD0007F1100018011D8A403D00001834B842B12
:101FE000010E0001886F0A0E00018819D8B421D0B3
:101FF00000018851040D010EF324F66E100EF4203A
:10200000F76EF86A000EF8220900F55000017D5DB8
:102010000900F55000017E590900F55000017F5973
:102020000900F55000018059D8A003D00001882B89
:10203000DAD7800E000188BF7F0E0001696F0001B2
:1020400083510001885D00018451800A00016959B3
:10205000D8B003D083C088F018D000018451800A22
:102060000001696F000188510001835D800E00014D
:1020700088BF7F0E00016959D8B007D00001885190
:102080000001836F846B83BF8407030E0001771503
:102090000001696F000E0001781500016A6F0001F0
:1020A000695100016A11D8B452D060C0D9FF61C033
:1020B000DAFF2D0EDF6E48D083C069F084C06AF06D
:1020C0000001D89069376A370001D89069376A37BC
:1020D000010E00016925F66E100E6A21F76EF86A8E
:1020E000000EF8220900F5CF05F00900F5CF06F043
:1020F0000900F5CF07F00A00F5CF08F07DC001F028
:102100007EC002F07FC003F080C004F0B4EC19F090
:1021100001C00EF002C00FF003C010F004C011F0B7
:102120000A0E126E000E136E000E146E000E156E67
:102130002DEC1AF00E50300F0001886F60C0D9FFEF
:1021400061C0DAFF88C0DFFF0001604B612B000136
:102150008307D8A0840700018329AEE10001842908
:10216000D8A4AAD762C0F6FF63C0F7FF0001624B94
:10217000632B000EF86E0800F5CF88F0000188513F
:10218000D8A465EF08F060C0D9FF61C0DAFF000E87
:10219000DF6E1200456E45AE0DD1456C4550800A8C
:1021A000120FD8A09AD0000E126E030E116E000E00
:1021B0000A6E0A0E096E000E046E640E036E455020
:1021C000016E026A01BE0206F5EC19F001C007F0CB
:1021D00002C008F072EC19F0090E07240F6E000E11
:1021E0000820106EA0EC1BF0500E0F24F66E100E9F
:1021F0001020F76EF86A000EF8220900F5CF33F0D0
:102200000900F5CF34F00A00F5CF35F0000E0A6E64
:10221000640E096E4550076E086A07BE080672EC28
:1022200019F0120E07240F6E000E0820106E000E1B
:10223000126E030E116EA0EC1BF0500E0F24F66E02
:10224000100E1020F76EF86A000EF8220900F5CF84
:1022500030F00900F5CF31F00A00F5CF32F0B4ECE0
:1022600016F030C042F031C043F032C044F042C0FA
:1022700030F043C031F044C032F0000E126E030E55
:10228000116E000E046E0A0E036E4550016E026A56
:1022900001BE0206F5EC19F001C00FF002C010F00B
:1022A000A0EC1BF0500E0F24F66E100E1020F76EEF
:1022B000F86A000EF8220900F5CF33F00900F5CFD7
:1022C00034F00A00F5CF35F0B4EC16F030C03FF032
:1022D00031C040F032C041F012004550800A750F05
:1022E000D8A053D0000E0A6E0A0E096E4550076E34
:1022F000086A07BE080672EC19F0090E07240F6E73
:10230000000E0820106E000E126E030E116EA0EC6F
:102310001BF0500E0F24F66E100E1020F76EF86AA8
:10232000000EF8220900F5CF30F00900F5CF31F0AA
:102330000A00F5CF32F0000E126E030E116E000E81
:10234000046E0A0E036E4550016E026A01BE02065B
:10235000F5EC19F001C00FF002C010F0A0EC1BF07A
:10236000500E0F24F66E100E1020F76EF86A000E55
:10237000F8220900F5CF33F00900F5CF34F00A0058
:10238000F5CF35F0B4EC16F0A1D74550030D500E43
:10239000F324F66E100EF420F76EF86A000EF822A1
:1023A0000900F5CF3FF00900F5CF40F00A00F5CF66
:1023B00041F012004550800A120FD8A09AD0000EAA
:1023C000126E030E116E000E0A6E0A0E096E000EDA
:1023D000046E640E036E4550016E026A01BE020671
:1023E000F5EC19F001C007F002C008F072EC19F02A
:1023F000090E07240F6E000E0820106EA0EC1BF0D3
:10240000290E0F24F66E100E1020F76EF86A000EDB
:10241000F8220900F5CF33F00900F5CF34F00A00B7
:10242000F5CF35F0000E0A6E640E096E4550076E4A
:10243000086A07BE080672EC19F0120E07240F6E28
:10244000000E0820106E000E126E030E116EA0EC2E
:102450001BF0290E0F24F66E100E1020F76EF86A8E
:10246000000EF8220900F5CF30F00900F5CF31F069
:102470000A00F5CF32F0B4EC16F030C042F031C0B3
:1024800043F032C044F042C030F043C031F044C0A9
:1024900032F0000E126E030E116E000E046E0A0E64
:1024A000036E4550016E026A01BE0206F5EC19F09A
:1024B00001C00FF002C010F0A0EC1BF0290E0F2499
:1024C000F66E100E1020F76EF86A000EF822090062
:1024D000F5CF33F00900F5CF34F00A00F5CF35F031
:1024E000B4EC16F030C03FF031C040F032C041F0E3
:1024F00012004550800A750FD8A053D0000E0A6E06
:102500000A0E096E4550076E086A07BE080672EC8F
:1025100019F0090E07240F6E000E0820106E000E31
:10252000126E030E116EA0EC1BF0290E0F24F66E36
:10253000100E1020F76EF86A000EF8220900F5CF91
:1025400030F00900F5CF31F00A00F5CF32F0000E7F
:10255000126E030E116E000E046E0A0E036E4550CD
:10256000016E026A01BE0206F5EC19F001C00FF01F
:1025700002C010F0A0EC1BF0290E0F24F66E100E16
:102580001020F76EF86A000EF8220900F5CF33F03C
:102590000900F5CF34F00A00F5CF35F0B4EC16F0B1
:1025A000A1D74550030D290EF324F66E100EF4202A
:1025B000F76EF86A000EF8220900F5CF3FF0090027
:1025C000F5CF40F00A00F5CF41F01200486E6D0ED5
:1025D0004864A8D0000E126E030E116E000E0A6E33
:1025E0000A0E096E000E046E640E036E48C001F000
:1025F000026AF5EC19F001C007F002C008F072ECB5
:1026000019F0090E07240F6E000E0820106EA0ECC2
:102610001BF0500E0F24F66E100E1020F76EF86AA5
:10262000000EF8220900F5CF33F00900F5CF34F0A1
:102630000A00F5CF35F0000E0A6E640E096E48C030
:1026400007F0086A72EC19F0120E07240F6E000EE4
:102650000820106E000E126E030E116EA0EC1BF01F
:10266000500E0F24F66E100E1020F76EF86A000E52
:10267000F8220900F5CF30F00900F5CF31F00A005B
:10268000F5CF32F0B4EC16F030C045F031C046F072
:1026900032C047F0000E126E030E116E000E046E73
:1026A0000A0E036E48C001F0026AF5EC19F001C091
:1026B0000FF002C010F0A0EC1BF0500E0F24F66ECD
:1026C000100E1020F76EF86A000EF8220900F5CF00
:1026D00033F00900F5CF34F00A00F5CF35F045C0EE
:1026E00030F046C031F047C032F0B4EC16F030C0E4
:1026F00042F031C043F032C044F042C030F043C039
:1027000031F044C032F0000E336E000E346E3F0ED6
:10271000356EB4EC16F030C03FF031C040F032C03E
:1027200041F012000A0E486463D0000E126E030ED0
:10273000116E000E046E0A0E036E48C001F0026AAC
:10274000F5EC19F001C00FF002C010F0A0EC1BF086
:10275000500E0F24F66E100E1020F76EF86A000E61
:10276000F8220900F5CF33F00900F5CF34F00A0064
:10277000F5CF35F0000E0A6E0A0E096E48C007F05C
:10278000086A72EC19F0090E07240F6E000E08207B
:10279000106E000E126E030E116EA0EC1BF0500EA8
:1027A0000F24F66E100E1020F76EF86A000EF82255
:1027B0000900F5CF30F00900F5CF31F00A00F5CF70
:1027C00032F0B4EC16F030C045F031C046F032C003
:1027D00047F045C030F046C031F047C032F0000E3F
:1027E000336E000E346E3F0E356EB4EC16F093D798
:1027F0004850030D500EF324F66E100EF420F76EC1
:10280000F86A000EF8220900F5CF30F00900F5CF84
:1028100031F00A00F5CF32F0000E336E000E346E48
:102820003F0E356EB4EC16F030C03FF031C040F0D2
:1028300032C041F012004BC04FF0506A516A4A3426
:102840004F3601E350804F50546E4EC04FF0506AE7
:10285000516A4D344F3601E350804F50536E5450FF
:10286000D8B40BD05350545CD8B00ED0545000089C
:1028700053244F6E180E4F6407D04CC049F04DC022
:102880004AF04EC04BF012005350D8B40BD0545005
:10289000535CD8B00ED05350000854244F6E180E1D
:1028A0004F6407D049C049F04AC04AF04BC04BF0D2
:1028B0001200060E526E4BBE528E4EBE528C4A8E87
:1028C000FF0E4916FF0E4A16000E4B164D8EFF0ED8
:1028D0004C16FF0E4D16000E4E165350545CD8B0D9
:1028E0001BD0D8904C364D364E36530654505318A4
:1028F000D8B40DD0520652C04FF0070E4F16D8B4C0
:1029000006D0EFD7D8904B324A324932542A53502E
:102910005418D8B41FD0F6D75450535CD8B01AD03E
:10292000D89049364A364B36540654505318D8B4CA
:102930000DD0520652C04FF0070E4F16D8B406D035
:10294000EFD7D8904E324D324C32532A5350541850
:10295000D8A4F7D752AE0CD0FF0E491AFF0E4A1A70
:10296000FF0E4B1A010E4926000E4A22000E4B2282
:1029700052AC0CD0FF0E4C1AFF0E4D1AFF0E4E1A21
:10298000010E4C26000E4D22000E4E22000E526EFD
:1029900049504C264A504D224B504E224EAE0ED03E
:1029A000FF0E4C1AFF0E4D1AFF0E4E1A010E4C264A
:1029B000000E4D22000E4E22010E526E4CC001F050
:1029C0004DC002F04EC003F054C004F052C005F0F8
:1029D00081EC18F001C049F002C04AF003C04BF08E
:1029E000120003C007F0086A096A0234073601E3DF
:1029F000088007500F6E0F50D8A409D0000E016E4A
:102A0000000E026E000E036E000E046E120006C071
:102A100007F0086A096A0534073601E308800750A1
:102A20000E6E0E50D8A409D0000E016E000E026E7C
:102A3000000E036E000E046E1200028EFF0E0116D1
:102A4000FF0E0216000E0316058EFF0E0416FF0E73
:102A50000516000E0616000E0A6E000E0B6E000E16
:102A60000C6E000E0D6E7F0E0F5E0E50980F0F5EF7
:102A7000180E0E6ED8900A360B360C360D360450F2
:102A8000015C0550025806500358D8A007D00450E6
:102A9000015E0550025A0650035A0A80D89001364A
:102AA000023603360E2EE6D70FAE16D00F50800A30
:102AB000970FD8B009D0000E016E000E026E000E06
:102AC000036E000E046E1200D8900D320C320B32E1
:102AD0000A320F3EF9D715D0170E0F640FD0000E33
:102AE000016E000E026E000E036E000E046E1200E8
:102AF000D8900A360B360C360D360F060F50D8A478
:102B0000F7D70AC001F00BC002F00CC003F00DC0F3
:102B100004F01200000E0001A16F000E0001A26F70
:102B2000C282C2B2FED7C4CFA1F0A1C007F0086A2A
:102B3000000E0A6E200E096E72EC19F007500001AB
:102B4000A26F0001B7510001B811D8A435D0000E12
:102B50000001B86F010EB76F000E0001A06F000EEC
:102B60009F6F14D09FC089F0010E00018A6F000191
:102B7000892B03D00001D8908A370001892FFAD71A
:102B800000018A518C1200019F4BA02B0001A25121
:102B90000001896F8A6B00019F510001895D00016E
:102BA0008A51800A00018B6F0001A051800A000148
:102BB0008B59D8A006D0D6D7000E0001B86F000EF2
:102BC000B76F0001A151050DF3CF09F0F4CF0AF062
:102BD0002CEC1BF009C046F00AC047F00BC048F0CF
:102BE000000E496E7F0E4A6E430E4B6EA8EC17F036
:102BF00046C09CF047C09DF048C09EF08C0E00017E
:102C0000606F000E0001616FA50E0001626F100E73
:102C10000001636F9CC064F09DC065F09EC066F0CB
:102C2000A2C067F00001686B5DEC08F0000E2BECB1
:102C30001CF08C0E066E000E076EC5EC1BF0120029
:102C4000033404340C6E0C50D8A409D0000E016E6D
:102C5000000E026E000E036E000E046E12000634AB
:102C600007340B6E0B50D8A409D0000E016E000E75
:102C7000026E000E036E000E046E1200038EFF0E35
:102C80000116FF0E0216FF0E0316000E0416068E26
:102C9000FF0E0416FF0E0516FF0E0616000E071691
:102CA000000E076E000E086E000E096E000E0A6E12
:102CB0007F0E0C5E0B50A00F0C5E200E0B6ED8909A
:102CC0000736083609360A360450015C05500258AA
:102CD0000650035807500458D8A009D00450015E8C
:102CE0000550025A0650035A0750045A0780D890DC
:102CF00001360236033604360B2EE1D70CAE16D061
:102D00000C50800A9F0FD8B009D0000E016E000E43
:102D1000026E000E036E000E046E1200D8900A328E
:102D20000932083207320C3EF9D715D01F0E0C6459
:102D30000FD0000E016E000E026E000E036E000E2C
:102D4000046E1200D8900736083609360A360C068B
:102D50000C50D8A4F7D707C001F008C002F009C092
:102D600003F00AC004F0120032C036F0376A386A45
:102D70003134363601E337803650396E3950D8A4B5
:102D800007D0000E306E000E316E000E326E120053
:102D900035C036F0376A386A3434363601E3378066
:102DA00036503E6E3E50D8A407D0000E306E000E56
:102DB000316E000E326E12003E507B0F392632C04B
:102DC0003EF035503E1A800E3E16318E348EFF0E88
:102DD0003316FF0E3416000E3516000E3A6E000E36
:102DE0003B6E000E3C6E070E3D6E30A006D0335099
:102DF0003A2634503B2235503C22D8903232313280
:102E00003032D8903336343635363D2EEED7090E73
:102E10003D6E30A006D033503A2634503B22355018
:102E20003C22D890323231323032D8903C323B3270
:102E30003A323D2EEED73AC001F03BC002F03CC022
:102E400003F039C004F03EC005F081EC18F001C079
:102E500030F002C031F003C032F0120017C019F098
:102E60001A6A1B6A1634193601E31A801950236E48
:102E70002350D8A409D0000E156E000E166E000E59
:102E8000176E000E186E1200170E196E15C01AF08C
:102E900016C01BF017C01CF019281D6E04D0D89066
:102EA0001C321B321A321D2EFAD71A501E6E168E85
:102EB000FF0E1516FF0E1616000E171615501F6E74
:102EC0001650206E1750216E226A8E0E235E23AE9E
:102ED00016D02350800A8F0FD8B009D0000E156E7F
:102EE000000E166E000E176E000E186E1200D890AF
:102EF0002232213220321F32233EF9D715D0170E4D
:102F000023640FD0000E156E000E166E000E176EA5
:102F1000000E186E1200D8901F3620362136223649
:102F200023062350D8A4F7D71E50D8B408D0221EA9
:102F3000211E201E1F6C000E2022212222221FC0D3
:102F400015F020C016F021C017F022C018F01200B2
:102F500048C04CF04D6A4E6A47344C3601E34D8010
:102F60004C50536E5350D8A407D0000E466E000E3E
:102F7000476E000E486E12004BC04CF04D6A4E6A10
:102F80004A344C3601E34D804C50546E5450D8A412
:102F900007D0000E466E000E476E000E486E1200FF
:102FA000000E506E000E516E000E526E5450890F7E
:102FB000535E48C054F04B50541A800E5416478E3E
:102FC000FF0E4616FF0E4716000E48164A8EFF0EDD
:102FD0004916FF0E4A16000E4B16180E4F6ED8906B
:102FE0005036513652364950465C4A5047584B503D
:102FF0004858D8A007D04950465E4A50475A4B50CF
:10300000485A5080D8904636473648364F2EE7D734
:1030100050C001F051C002F052C003F053C004F0A0
:1030200054C005F081EC18F001C046F002C047F032
:1030300003C048F01200000E00019C6F000E00015A
:103040009D6FC282C2B2FED7C4CF9CF09CC007F075
:10305000086A000E0A6E200E096E72EC19F0075015
:1030600000019D6F00019D5100085E6E070E5E26F7
:10307000010E5F6E5E2A02D0D8905F365E2EFCD7BE
:103080005F508C6E00019C51050DF3CF09F0F4CF19
:103090000AF02CEC1BF009C046F00AC047F00BC048
:1030A00048F0000E496E7F0E4A6E430E4B6EA8EC40
:1030B00017F046C099F047C09AF048C09BF0890EBF
:1030C0000001606F000E0001616F770E0001626FFA
:1030D000100E0001636F99C064F09AC065F09BC048
:1030E00066F09DC067F00001686B5DEC08F0000EB3
:1030F0002BEC1CF0890E066E000E076EC5EC1BF063
:1031000012000450D8B405D0015002100310D8A406
:103110000CD0000E016E000E026E000E036E120047
:10312000042AD890033202320132000E0114066ED6
:10313000000E0214076EFE0E0314086E06500710F0
:103140000810D8B40CD0ECD7042A010E0126000ECA
:103150000222000E0322D890033202320132000E06
:103160000114066E000E0214076EFF0E0314086EA3
:10317000065007100810D8B406D0E6D70406D89039
:1031800001360236033602BE03D0020E0460F6D7C3
:1031900004A0029ED8900432045003120550D8A413
:1031A000038E01C001F002C002F003C003F0120060
:1031B000000E00019C6F20EEA5F010EE89F00F0EBE
:1031C000DBCFE3FFE806FCE2C282C2B2FED7C4CF87
:1031D0009CF09CC08CFF00019C51050DF3CF09F0C1
:1031E000F4CF0AF02CEC1BF009C046F00AC047F0FF
:1031F0000BC048F0000E496E7F0E4A6E430E4B6EB8
:10320000A8EC17F046C099F047C09AF048C09BF070
:10321000890E0001606F000E0001616F8E0E0001CB
:10322000626F100E0001636F9CC064F00001656B5B
:1032300099C066F09AC067F09BC068F05DEC08F03A
:10324000000E2BEC1CF0890E066E000E076EC5EC0E
:103250001BF0120057AE16D055C05BF056C05CF0A4
:1032600057C05DF05B1E5C1E5D1E5B2A000E5C227B
:103270005D22000E5B24556E000E5C20566E800EA3
:103280005D20576E5AAE16D058C05BF059C05CF046
:103290005AC05DF05B1E5C1E5D1E5B2A000E5C2248
:1032A0005D22000E5B24586E000E5C20596E800E6D
:1032B0005D205A6E000E551A000E561A800E571ACF
:1032C000000E581A000E591A800E5A1A5850555CA2
:1032D000595056585A505758D8B002D0D89012006A
:1032E000D8801200000E0C6E0AAE06D0096C0A1EC1
:1032F000D8B00A2A010E0C6E08AE06D0076C081E64
:10330000D8B0082A010E0C1A000E0E6E000E0D6EBB
:1033100009500A10D8B41CD0010E0B6E04D0D890FE
:1033200009360A360B2A0AAEFAD7D8900D360E3671
:103330000950075C0A500858D8A005D00950075E0C
:103340000A50085A0D80D8900A3209320B2EEDD758
:103350000C50D8B404D00D6C0E1ED8B00E2A0DC07F
:1033600007F00EC008F01200000E096E000E0A6E83
:10337000000E0B6E000E0C6E0550061007100810A4
:10338000D8B42AD0010E0D6E06D0D8900536063678
:10339000073608360D2A08AEF8D7D89009360A360F
:1033A0000B360C360550015C065002580750035886
:1033B00008500458D8A009D00550015E0650025AA2
:1033C0000750035A0850045A0980D890083207322F
:1033D000063205320D2EE1D709C001F00AC002F015
:1033E0000BC003F00CC004F01200000E066E02AE1B
:1033F00006D0016C021ED8B0022A010E066E04AE81
:1034000004D0036C041ED8B0042A03500410D8B4AE
:1034100018D0010E056E04D0D89003360436052A64
:1034200004AEFAD70350015C04500258D8A004D06F
:103430000350015E0450025AD89004320332052E24
:10344000F1D70650D8B404D0016C021ED8B0022ABD
:1034500001C001F002C002F012001250131014104B
:103460001510D8B424D0010E166E06D0D89012369E
:10347000133614361536162A15AEF8D712500E5CD0
:1034800013500F581450105815501158D8A008D088
:1034900012500E5E13500F5A1450105A1550115AF4
:1034A000D8901532143213321232162EE7D70EC0CE
:1034B0000EF00FC00FF010C010F011C011F012008C
:1034C0008E0E2C6E06D0D89027322632253224322A
:1034D0002C2A000E2414286E000E2514296E000ECE
:1034E00026142A6EFF0E27142B6E285029102A103E
:1034F0002B10D8A4E8D724C001F025C002F026C0C4
:1035000003F02CC004F0000E056E81EC18F001C031
:1035100024F002C025F003C026F012003AEC1CF0A3
:1035200018EC1CF0E5EC1AF031EC1CF00BD000ECC0
:103530001CF008D0D8EC18F005D01BEC18F002D025
:103540008AEC15F0B5C0A3F0B6C0A4F00001A451F8
:10355000000AD8A4F7D70001A351010AD8B4E7D7CD
:10356000030AD8B4E7D7010AD8B4E7D7070AD8B412
:10357000E7D7E8D7036E3F0EC716000EC66E03509E
:10358000C6120250C71205D0C78C13D0C78CC6888C
:1035900010D00150000AD8B4F7D7020AD8B4F6D731
:1035A000010AD8B4F4D705D0978E94860AD09496A1
:1035B00008D00350040AD8B4F7D7010AD8B4F5D715
:1035C000F6D79488949AC68A120092948084020E48
:1035D000016E800E026E020EBAEC1AF0000E036E3F
:1035E000010EE6EC1BF0000E036E000EE6EC1BF085
:1035F000000E036E000EF3EC1BF03F0E8AEC1BF086
:103600000C0E8AEC1BF0010E8AEC1BF0060E8AEC05
:103610001BF036EC1CF01200585059105A10D8B458
:1036200006D0000E581A000E591A800E5A1A55C0AC
:1036300049F056C04AF057C04BF058C04CF059C042
:103640004DF05AC04EF01BEC14F049C055F04AC082
:1036500056F04BC057F01200000E0C6E0AAE06D0AA
:10366000096C0A1ED8B00A2A010E0C6E09C001F0BE
:103670000AC002F0036A8E0E046E0CC005F081ECE5
:1036800018F001C009F002C00AF003C00BF01200EC
:10369000440EF66E380EF76E000EF86E00EEA5F0D2
:1036A00010EE12F00900F5CFEEFFE550E150FAE11F
:1036B0000001B86BB76B00018EEF1AF0056E800E3B
:1036C000036E120EF3EC1BF005C003F0130EF3ECC7
:1036D0001BF0C00E036E120EF3EC1BF0000E036E17
:1036E000120EF3EC1BF01200000E036E000E026EC1
:1036F00003500FE1320E025CD8B01200410E016E91
:10370000EE0EE82EFED7012EFCD700D0024A032A87
:10371000EFD71200056E000E036E120EF3EC1BF0D5
:1037200005C003F0130EF3EC1BF0400E036E120EF7
:10373000F3EC1BF0000E036E120EF3EC1BF0120004
:103740000F501102F3CF13F0F4CF14F00F50120208
:10375000F350142610501102F350142613C00FF02A
:1037600014C010F012002D502E102F10D8B406D017
:10377000000E2D1A000E2E1A800E2F1A2DC02DF0BD
:103780002EC02EF02FC02FF0120009D006C0D9FF96
:1037900007C0DAFFDF505EEC1BF0064A072A06C0BE
:1037A000D9FF07C0DAFFDF50D8B41200EFD7036E9D
:1037B000000E026E3A0E036005D02F0E036402D095
:1037C000010E026E02C001F001301200046E8094FE
:1037D000400E0CEC1CF004500CEC1CF003500CECF4
:1037E0001CF080841200046E8094400E0CEC1CF0DF
:1037F00004500CEC1CF003500CEC1CF08084120004
:10380000000E046EC282C2B2FED7C4CF04F004C060
:103810008CFF74EC1BF01200026EC9CF01F09E9673
:10382000C69E02C0C9FFC6BE12009EB61200FDD7DA
:1038300092500109926E010EC26E000EC16E020E10
:10384000C06E1200506F74692076616C756520201F
:10385000202020000400066E0650800F8AEC1BF02A
:103860001200000E956E000E8C6E1200010E8AEC96
:0A3870001BF012009380928A1200F0
:020000040020DA
:08000000FFFFFFFFFFFFFFFF00
:020000040030CA
:0E000000FF021F1EF38385FFFFC0FFE0FF40DD
:00000001FF
