:0400000007EF00F016
:100008001A82C9ED00F077EF01F0000E166E160E99
:10001800106E000E116E5DEC01F0560E166042D0A7
:10002800000E106E010E31EC01F0000E186E17680C
:1000380018BE0FD017C010F0020E31EC01F0000E00
:10004800116E140E106E47EC01F01706D8A01806B2
:10005800EFD7000E106E000E31EC01F0000E116E9D
:10006800320E106E47EC01F0000E186E000E176E7F
:1000780018BE03D01804D8B00ED017C010F0010E67
:1000880031EC01F0000E116E140E106E47EC01F009
:10009800174A182AEDD7000E116E320E106E47EC73
:1000A80001F01200AB0E16603BD0000E106E020E6F
:1000B80031EC01F0000E186E176818BE0FD017C08B
:1000C80010F0010E31EC01F0000E116E140E106EDE
:1000D80047EC01F01706D8A01806EFD7000E106EEF
:1000E800010E31EC01F0000E186E000E176E18BEEE
:1000F80003D01804D8B00ED017C010F0000E31ECA1
:1001080001F0000E116E140E106E47EC01F0174A44
:10011800182AEDD7000E106E000E31EC01F0120017
:10012800000E106E010E31EC01F0000E186E000E7C
:10013800176E18BE03D01804D8B00ED017C010F030
:10014800020E31EC01F0000E116E140E106E47EC29
:1001580001F0174A182AEDD7000E106E020E31EC86
:1001680001F0000E186E176818BE120017C010F0C4
:10017800000E31EC01F0000E116E140E106E47ECFB
:1001880001F01706D8A01806EFD70600FACF02F03C
:10019800FBCF03F0E9CF04F0EACF05F0E1CF06F09A
:1001A800E2CF07F0D9CF08F0DACF09F0F3CF0AF0A1
:1001B800F4CF0BF0F6CF0CF0F7CF0DF0F8CF0EF030
:1001C800F5CF0FF0F2B8F2A20ED01950D8A405D08E
:1001D8007D0E86EC01F0010E04D0FF0E86EC01F0D6
:1001E800000E196EF2920FC0F5FF0EC0F8FF0DC099
:1001F800F7FF0CC0F6FF0BC0F4FF0AC0F3FF09C0FD
:10020800DAFF08C0D9FF07C0E2FF06C0E1FF05C05A
:10021800EAFF04C0E9FF03C0FBFF02C0FAFF1A921D
:1002280011009484948298800C0EBD6E0C0EBA6EE8
:100238000C0EB76E000EBE6E000EBB6E000EB86ED2
:10024800050ECA6E9EA2FED79494949298909250EE
:100258000109926E010EC26E1200116E09D010C013
:10026800BEFF120010C0BBFF120010C0B8FF120082
:100278001150000AD8B4F3D7010AD8B4F3D7030A47
:10028800D8A41200F2D7000E156E05D0A60EE82EDF
:10029800FED700D0152A1550126E136A1050125C42
:1002A8001350800A146E1150800A1458D8B01200E6
:1002B800EDD7010EC26E0E0EC16E3A0EC06EC2822E
:1002C800C2B2FED710C0D9FF11C0DAFFC4CFDFFF1A
:1002D800120015EC01F07DEC01F0FF0E82EC01F04C
:1002E80009EC00F0FDD7196A1A901A9200016DEF17
:1002F80001F0F28EF288F292F18C1200106E10C0AA
:0C030800CBFF1200016E01C0CBFF120001
:020000040020DA
:08000000FFFFFFFFFFFFFFFF00
:020000040030CA
:0E000000FF02191EF38381FFFFC0FFE0FF40E7
:00000001FF
