:0400000007EF00F016
:10000800128209ED00F076EF00F00600FACF02F058
:10001800FBCF03F0E9CF04F0EACF05F0E1CF06F01B
:10002800E2CF07F0D9CF08F0DACF09F0F3CF0AF022
:10003800F4CF0BF0F6CF0CF0F7CF0DF0F8CF0EF0B1
:10004800F5CF0FF0F2B8F2A20ED01150D8A405D017
:100058007D0E85EC00F0010E04D0FF0E85EC00F05B
:10006800000E116EF2920FC0F5FF0EC0F8FF0DC022
:10007800F7FF0CC0F6FF0BC0F4FF0AC0F3FF09C07E
:10008800DAFF08C0D9FF07C0E2FF06C0E1FF05C0DC
:10009800EAFF04C0E9FF03C0FBFF02C0FAFF1292A7
:1000A80011009484948298800C0EBD6E0C0EBA6E6A
:1000B8000C0EB76E000EBE6E000EBB6E000EB86E54
:1000C800050ECA6E9EA2FED7949494929890120040
:1000D80055EC00F07CEC00F0FF0E81EC00F089ECB0
:1000E80000F0FDD7116A1290129200016CEF00F037
:1000F800F28EF288F292F18C1200106E10C0CBFFD3
:0C0108001200016E01C0CBFF12001200BB
:020000040020DA
:08000000FFFFFFFFFFFFFFFF00
:020000040030CA
:0E000000FF02191EF38381FFFFC0FFE0FF40E7
:00000001FF
