:0400000007EF00F016
:0A000800508276ED0BF0A7EF0EF02A
:101000000001000A006400E80310272020436C69F7
:101010006D61206973204F4646202000002D2D2D44
:101020002D2D2D2D2D2D2D2D2D2D2D2D2D00005423
:10103000653A2B2020432054693A2B20204320007E
:101040000052656365202020202020203C20204382
:101050003E000054653A2B2020432054693A2B204F
:10106000204320000043616C6420202020202020A9
:101070003C2020433E000054653A2B20204320545E
:10108000693A2B20204320000056656E74202020F2
:1010900020202020202020432000002D3E205465C9
:1010A0006D7065726174757265206F75743A004C6D
:1010B000434420696E6974202E2E2E007C2E2E2E25
:1010C0002E007C7C2E2E2E007C7C7C2E2E007C7CA8
:1010D0007C7C2E007C7C7C7C7C0025303264004350
:1010E000616C6400526563650056656E74000A0D9C
:0B10F0000025640020003C003E0000D2
:1010FC00490E0001606F000E0001616F6AD1250E70
:10110C0000016819D8B409D045C0D9FF46C0DAFF30
:10111C0068C0DFFF454A462A5CD1000E0001676FAC
:10112C00000E666F000E0001656F04D0000165852E
:10113C00474A482A47C0F6FF48C0F7FF000EF86E32
:10114C000800F550300AD8B4F1D747C0F6FF48C0B4
:10115C00F7FF000EF86E0800F55098EC0EF0D8A0D2
:10116C0039D0000E0001676F000E666F66C03FF04D
:10117C0067C040F0000E426E0A0E416E55EC0EF048
:10118C003FC066F040C067F0D00E4B6EFF0E4C6E49
:10119C0047C0F6FF48C0F7FF000EF86E0800F55088
:1011AC004D6E4E6A4B504D264C504E224D50000108
:1011BC0066274E5000016723474A482A47C0F6FF6E
:1011CC0048C0F7FF000EF86E0800F55098EC0EF0D2
:1011DC00D8B0CCD747C0F6FF48C0F7FF474A482ADB
:1011EC00000EF86E0800F5CF68F000016851000A97
:1011FC00D8B4FED0640AD8B403D00D0AD8A4E9D070
:10120C0060C0D9FF61C0DAFFDECF63F0DDCF64F0E0
:10121C00020E00016027000E6123000164AF08D0AC
:10122C00030E000165130001636D641FD8B0642BBD
:10123C00010E0001686F050E00016819D8B419D0B1
:10124C0000016851020D010EF324F66E100EF4200D
:10125C00F76EF86A000EF8220900F5500001635D84
:10126C000900F55000016459D8A003D00001682B87
:10127C00E2D70001665100016711D8B40AD065C0ED
:10128C004BF0030E4B16D8B404D000016607D8A05F
:10129C006707800E000168BF7F0E4B6E0001665120
:1012AC000001685D00016751800A4B58D8B00BD023
:1012BC00000168510001665F000E000168BFFF0E5F
:1012CC000001675B05D0000E0001676F000E666FB2
:1012DC00000165A521D065C04BF0030E4B16D8B4A8
:1012EC0008D045C0D9FF46C0DAFF2D0EDF6E454A47
:1012FC00462A0001665100016711D8B433D045C0AD
:10130C00D9FF46C0DAFF300EDF6E454A462A00018F
:10131C006607D8A06707EDD7000166510001671179
:10132C00D8B412D045C0D9FF46C0DAFF200EDF6E0C
:10133C00454A462A00016607D8A067070001665196
:10134C0000016711D8A4EED765C04BF0030E4B1605
:10135C00D8B408D045C0D9FF46C0DAFF2D0EDF6ED9
:10136C00454A462A68C062F02ED000016251020D37
:10137C00010EF324F66E100EF420F76EF86A000ED0
:10138C00F8220900F5CF3AF00A00F5CF3BF063C024
:10139C0038F064C039F00BEC0DF038C03FF039C0B8
:1013AC0040F0000E426E0A0E416E7BEC0DF03F5089
:1013BC00300F0001686F45C0D9FF46C0DAFF68C026
:1013CC00DFFF454A462A0001620700016229D8A4C2
:1013DC00CCD747C0F6FF48C0F7FF474A482A000E53
:1013EC00F86E0800F5CF68F000016851D8A487D6D4
:1013FC0045C0D9FF46C0DAFF000EDF6E1200E5D003
:10140C005AEC0DF0000E396E010E386EECEC0EF04D
:10141C00000E396E010E386EE6EC0EF0000E396ED1
:10142C00000E386EEFEC0EF0000E396E000E386EBA
:10143C00E9EC0EF040EC0EF0000EBBEC0EF0000EE2
:10144C00B2EC0EF081B01200030E146E1200000EFE
:10145C00396E000E386EEFEC0EF0000E396E010E88
:10146C00386EE9EC0EF040EC0EF00BC03AF03B6A33
:10147C000B50486E496A481E491E484A492A015079
:10148C004824386E02504920396E0BEC0DF038C0F0
:10149C003FF039C040F0000E426E640E416E55ECC8
:1014AC000EF03FC045F040C046F068EC0EF045C071
:1014BC004AF046C04BF047C04CF04CAE02D0020E86
:1014CC0006D04A504B104C10D8A402D0030E146E08
:1014DC00000E386EC80E396E410E3A6E4AC03BF0A3
:1014EC004BC03CF04CC03DF042EC0CF0D8A004D00A
:1014FC00190EBBEC0EF036D0000E386E480E396E5D
:10150C00420E3A6E4AC03BF04BC03CF04CC03DF032
:10151C0042EC0CF0D8A004D0320EBBEC0EF022D072
:10152C00000E386E960E396E420E3A6E4AC03BF083
:10153C004BC03CF04CC03DF042EC0CF0D8A004D0B9
:10154C004B0EBBEC0EF00ED0000E386EC80E396E82
:10155C00420E3A6E4AC03BF04BC03CF04CC03DF0E2
:10156C0042EC0CF0640EBBEC0EF01200000E396E67
:10157C00000E386EE6EC0EF0000E396E010E386E71
:10158C00ECEC0EF0000E396E000E386EEFEC0EF037
:10159C00000E396E000E386EE9EC0EF040EC0EF0D9
:1015AC000B50486E496A0150485C02504958D8B0FB
:1015BC0003D0010E146E12000B50015C000E025889
:1015CC00D8B01200020E146E12001450000AD8B4D7
:1015DC0017D7010AD8B43BD7030AD8B41200010AB2
:1015EC00D8A41200C3D7000E00016D6F000E6C6FF3
:1015FC00000E00016E6F000E81B0010E00016E6FC7
:10160C0000016E510001D8A407D0065000016E19DC
:10161C00D8B402D0010E0C6E6EC006F0000EF7ECC2
:10162C000DF038C06CF039C06DF06CC069F06DC055
:10163C006AF0060E00016B6F0001D8906A336933B3
:10164C0000016B2FF9D700016951150F0B6E075074
:10165C00D8A444D0010EF7EC0DF038C06CF039C0B2
:10166C006DF06CC03FF06DC040F0000E426E050E88
:10167C00416E55EC0EF0700E3F24386EFE0E40207D
:10168C00396E000E3B6E130E3A6E0BEC0DF038C03B
:10169C0001F039C002F09B0E396E100E3A6EE1EC7F
:1016AC000CF0150E456E000E466EF10E476E100EC8
:1016BC00486E01C049F002C04AF07EEC08F0150EED
:1016CC00396E000E3A6EE1EC0CF0EE0E396E100E27
:1016DC003A6EE1EC0CF01E0E076E120007061200BB
:1016EC000600FACF2AF0FBCF2BF0E9CF2CF0EACF93
:1016FC002DF0E1CF2EF0E2CF2FF0D9CF30F0DACFB2
:10170C0031F0F3CF32F0F4CF33F0F6CF34F0F7CF33
:10171C0035F0F8CF36F0F5CF37F0F2BAF2A437D077
:10172C00F294D59EFB0ED76E1B0ED66ED58E0A2A62
:10173C000A50030B030AD8A409D0082A190E08185A
:10174C00D8A404D0010E096E000E086E0AC029F050
:10175C00070E29161350295CD8B002D0838801D00B
:10176C0083980AC029F0070E29161250295CD8B0AC
:10177C0002D0838A01D0839A0AC029F0070E291659
:10178C001150295CD8B002D0838601D0839637C023
:10179C00F5FF36C0F8FF35C0F7FF34C0F6FF33C095
:1017AC00F4FF32C0F3FF31C0DAFF30C0D9FF2FC0D5
:1017BC00E2FF2EC0E1FF2DC0EAFF2CC0E9FF2BC0D9
:1017CC00FBFF2AC0FAFF509211003B50D8B405D051
:1017DC00385039103A10D8A40CD0000E386E000EC8
:1017EC00396E000E3A6E12003B2AD8903A323932DA
:1017FC003832000E38143D6E000E39143E6EFE0E5B
:10180C003A143F6E3D503E103F10D8B40CD0ECD77C
:10181C003B2A010E3826000E3922000E3A22D890AF
:10182C003A3239323832000E38143D6E000E39140B
:10183C003E6EFF0E3A143F6E3D503E103F10D8B432
:10184C0006D0E6D73B06D890383639363A3639BE0C
:10185C0003D0020E3B60F6D73BA0399ED8903B32AA
:10186C003B503A123C50D8A43A8E38C038F039C0AC
:10187C0039F03AC03AF012003AAE16D038C03EF009
:10188C0039C03FF03AC040F03E1E3F1E401E3E2A7B
:10189C00000E3F224022000E3E24386E000E3F20E8
:1018AC00396E800E40203A6E3DAE16D03BC03EF0F5
:1018BC003CC03FF03DC040F03E1E3F1E401E3E2A45
:1018CC00000E3F224022000E3E243B6E000E3F20B5
:1018DC003C6E800E40203D6E000E381A000E391AF8
:1018EC00800E3A1A000E3B1A000E3C1A800E3D1A5E
:1018FC003B50385C3C5039583D503A58D8B002D027
:10190C00D8901200D8801200000E956E000E836ED7
:10191C009C8EF2EC0EF0BCEC0DF0DEEC0EF09CECC0
:10192C000DF034EC0DF0000E146E5AEC0DF0000EB0
:10193C00396E010E386EECEC0EF0000E396E000EA6
:10194C00386EEFEC0EF0000EBBEC0EF0000EB2ECAD
:10195C000EF0000E396E000E386EEFEC0EF0120029
:10196C0015D03DC0F6FF3EC0F7FF000EF86E0F0E0F
:10197C00F76403D00800F55005D0F6CFE9FFF7CF98
:10198C00EAFFEF5014EC0EF03D4A3E2A3DC0F6FF44
:10199C003EC0F7FF000EF86E0F0EF76403D0080080
:1019AC00F55005D0F6CFE9FFF7CFEAFFEF5000096D
:1019BC00D8B41200D6D739C0F6FF3AC0F7FF000EE4
:1019CC00F86E0F0EF76403D00800F55005D0F6CF73
:1019DC00E9FFF7CFEAFFEF50CBEC0EF0394A3A2A89
:1019EC0039C0F6FF3AC0F7FF000EF86E0F0EF76421
:1019FC0003D00800F55005D0F6CFE9FFF7CFEAFF8A
:101A0C00EF500009D8B41200D6D7000E3E6E000E6F
:101A1C003D6E3A503B10D8B41CD0010E3C6E04D035
:101A2C00D8903A363B363C2A3BAEFAD7D8903D3666
:101A3C003E363A50385C3B503958D8A005D03A5015
:101A4C00385E3B50395A3D80D8903B323A323C2E6E
:101A5C00EDD73DC038F03EC039F01200C4EC0EF0AA
:101A6C00000E3A6E010E7AEC0EF0000E3A6E000E7D
:101A7C007AEC0EF0000E3A6E000E89EC0EF03F0E72
:101A8C002AEC0EF00C0E2AEC0EF0010E2AEC0EF0E5
:101A9C00060E2AEC0EF0AF0E3D6E100E3E6EB6EC3E
:101AAC000CF0E2EC0EF01200E2EC0EF0000ED2ECB8
:101ABC000EF01450240D0B0EF3243D6E100EF4207A
:101ACC003E6EB6EC0CF0400ED2EC0EF01450240D21
:101ADC00120EF326000EF4220B0EF3243D6E100EA4
:101AEC00F4203E6EB6EC0CF0120041504210D8B40B
:101AFC0018D0010E436E04D0D89041364236432A9A
:101B0C0042AEFAD741503F5C42504058D8A004D066
:101B1C0041503F5E4250405AD89042324132432E9F
:101B2C00F1D73FC03FF040C040F01200889C889E27
:101B3C009A9E9A9C83968398839A95969598959A53
:101B4C00000ED76E000ED66E000ED56ED59ED59CAF
:101B5C00D59AD598D596D590D592D594FB0ECF6EB7
:101B6C001D0ECE6EF28AF28ED58E120092500109A5
:101B7C00926E92500209926E92501009926EC2505F
:101B8C00C30B0409C26EC292C290CF0EC116C19093
:101B9C00C192C194C196C08EC086C088C08AC05004
:101BAC00F80B0209C06E12008AEC0CF0000E956E58
:101BBC00E2EC0EF0000ED2EC0EF0EC0E3D6E100EC0
:101BCC003E6EB6EC0CF00950D8B4FDD7000E096E81
:101BDC00F9EC0AF005EC0AF040EC0EF0000E0C6E7D
:101BEC00F2D73B6E0D0E3B6405D0000E396E000E25
:101BFC00386E1200C2803BC03AF03A463A46C250A8
:101C0C003A18C30B3A18C26EC280C282C2B2FED757
:101C1C00C290C3CF38F0C4CF39F012003C6E800EA6
:101C2C003A6E120E89EC0EF03CC03AF0130E89ECB1
:101C3C000EF0C00E3A6E120E89EC0EF0000E3A6EDB
:101C4C00120E89EC0EF012003C6E000E3A6E120E63
:101C5C0089EC0EF03CC03AF0130E89EC0EF0400EFD
:101C6C003A6E120E89EC0EF0000E3A6E120E89ECE2
:101C7C000EF012000EB002D0839E01D0838E0DB0F8
:101C8C0002D0839C01D0838C0FB002D0839201D000
:101C9C00838210B002D0839001D0838012003F5019
:101CAC004102F3CF43F0F4CF44F03F504202F350E3
:101CBC00442640504102F350442643C03FF044C0F8
:101CCC0040F0120045C038F046C039F03A6A8E0E2A
:101CDC003B6E000E3C6EEBEC0BF038C045F039C09F
:101CEC0046F03AC047F012003B6EF6EC0EF0400E98
:101CFC00D8EC0EF03B50D8EC0EF03A50D8EC0EF07D
:101D0C00F4EC0EF012003B6EF6EC0EF0400ED8EC3C
:101D1C000EF03B50D8EC0EF03A50D8EC0EF0F4EC40
:101D2C000EF012003A6E000E396E3A0E3A6005D083
:101D3C002F0E3A6402D0010E396E39C038F03830AB
:101D4C00120000EE01F0280EEE6AE806FDE150905C
:101D5C0050920001DAEF0DF0386E3850D8B402D042
:101D6C00030E382638C012F01200386E3850D8B432
:101D7C0002D0030E382638C013F0120080848288FB
:101D8C0092949488949A94961200386E38C0ADFF51
:101D9C009EA8FED79E9812003D6E3D50800F2AECF7
:101DAC000EF01200396E080E386E39C04FF012006A
:101DBC0095969598959A1200010E2AEC0EF0120049
:101DCC0038C00DF0120038C00FF0120038C00EF001
:101DDC00120038C010F012009380120080841200A0
:041DEC0080941200CD
:020000040020DA
:08000000FFFFFFFFFFFFFFFF00
:020000040030CA
:0E000000FF021F1EF38385FFFFC0FFE0FF40DD
:00000001FF
